:020000040800F2
:1000000000000220492100087D2100087D21000810
:100010007D2100087D2100087D21000800000000EE
:100020000000000000000000000000007D2100082A
:100030007D210008000000007D2100087D210008CE
:100040007D2100087D2100087D2100087D21000818
:100050007D2100087D2100087D2100087D21000808
:100060007D2100087D2100087D2100087D210008F8
:100070007D2100087D2100087D2100087D210008E8
:100080007D2100087D2100087D210008000000007E
:100090000000000000000000000000007D210008BA
:1000A0007D2100087D2100087D2100087D210008B8
:1000B0007D2100087D2100087D2100087D210008A8
:1000C0007D2100087D2100087D2100087D21000898
:1000D0007D2100087D2100087D210008000000002E
:1000E0007D2100087D2100087D210008000000001E
:1000F0000000000000000000000000007D2100085A
:10010000000000007D2100087D2100087D210008FD
:1001100000000000000000000000000000000000DF
:100120007D2100087D2100087D2100087D21000837
:100130007D21000800000000000000000000000019
:100140000000000000000000000000007D21000809
:100150007D2100087D2100087D2100087D21000807
:100160007D2100087D210008000000000000000043
:10017000000000000000000000000000000000007F
:10018000000000007D2100080000000000000000C9
:100190007D2100087D210008044B05481B1A062B11
:1001A00002D9044B03B11847704700BF3F0B002032
:1001B0003C0B00200000000005490648091A891080
:1001C00001EBD171491002D0034B03B118477047BE
:1001D0003C0B00203C0B00200000000010B5064C3A
:1001E000237843B9FFF7D8FF044B13B10448AFF3AA
:1001F00000800123237010BD400B00200000000090
:10020000B0FC000808B5084B1BB108480849AFF31B
:1002100000800848036813B9BDE80840CCE7064BE6
:10022000002BF9D09847F7E700000000B0FC000869
:10023000440B0020380B002000000000134B002B63
:1002400008BF114B9D46A3F5803A00218B460F460F
:100250001148124A121A05F099F90D4B002B00D0E3
:1002600098470C4B002B00D0984700200021040039
:100270000D000B4801F0F5FB04F066FF200029009B
:1002800001F03EFD01F0EAFB000008000000022042
:1002900000000000F11C0008400B0020F8140020B2
:1002A000E94900080020704700207047002070478F
:1002B000002070477047002070477047002070474B
:1002C00000207047002070477047002070470020D2
:1002D000704700207047022280F82424036800221F
:1002E00080F8252480F826245B6B184770477047F8
:1002F00000487047CE01002000487047A40100204C
:1003000000487047E801002000487047C8010020FD
:10031000004870479C01002000487047D20100202F
:1003200038B50F4C2368DB07054616D4204601F08C
:10033000C3FB90B10B4BB5F804241A72120A5A721F
:10034000B5F806249A72120ADA72B5F808241A73FC
:100350002046120A5A7301F0C9FB024838BD00BF9B
:10036000600B0020B6010020B0F810341A12022AE7
:1003700070B5044622D0032A34D0012A70D1036814
:100380009B6C984700286BD0236820469B6C98474D
:100390000678122E64D1236820469B6C98474578D6
:1003A000012D5DD12368C4F81C649B6C20469847DE
:1003B00084F82054C4F81804284670BD0368DB6C28
:1003C000984700284CD023682046DB6C9847037878
:1003D000092B45D123682046DB6C98474378022BD4
:1003E0003ED13FE0DBB2052B3AD8DFE803F0030C47
:1003F000151E273003681B6D98470378C4F81C341A
:1004000023681B6D3EE003685B6D98470378C4F872
:100410001C3423685B6D35E003689B6D9847037857
:10042000C4F81C3423689B6D2CE00368DB6D98478F
:100430000378C4F81C342368DB6D23E003681B6E6B
:1004400098470378C4F81C3423681B6E1AE00368CD
:100450005B6E98470378C4F81C3423685B6E11E028
:10046000002070BD23682046DB6C984723688578A0
:10047000DB6C20469847C37845EA03252368C4F817
:100480001C54DB6C20469847C4F81804012084F8FB
:10049000200470BD0B78DB0913700B78C3F3411394
:1004A00053700B7803F01F0393704B78D370C878A8
:1004B0008B7843EA0023938048790B7943EA002341
:1004C000D380C8798B7943EA00231381704730B514
:1004D00090F8205491B004462DBB694600F08EFE82
:1004E000D4F81C34984202461DD8D4F818141D1AAA
:1004F0000144C4F81814C4F81C547DB994F822348B
:1005000033B123682046DB6B6946984784F8225450
:10051000002120460A4600F0EDFE02E0204600F0F1
:10052000E9FB012000E0002011B030BD10B5044609
:10053000FFF7CDFF20B92046BDE8104000F026BFF0
:1005400010BD70B5D0F81C540446E5B990F82134BC
:100550002BB129462A4600F0CDFE84F8215494F8A8
:10056000223443B123680021DB6B20460A469847BA
:10057000002384F82234204600F0BCFB204600F023
:100580003CFE012070BD90F82064012E12D1402D58
:1005900028BF40252A46D0F8181400F0ABFED4F846
:1005A00018342B44C4F81834D4F81C345D1BC4F838
:1005B0001C54E6E7002070BD10B50446FFF7C1FFEC
:1005C00020B92046BDE8104000F0E0BE10BD10B5D7
:1005D000044690F8101400F0A5FEB4F810340BB9DE
:1005E000022300E0032384F82434012010BD90F896
:1005F000101438B5044680F8251431B900F0EDFD2B
:10060000032384F8243401250AE003681B6C98470F
:10061000054628B1204600F0DFFD042384F8243489
:10062000284638BD90F82434042B01BFB0F8283494
:10063000A0F8123400F22A43C0F8183401BF012395
:10064000C0F81C3480F82034184618BF00207047CA
:100650000368B0F812145B6C90F8102410B50446CF
:10066000984740B1B4F81234A4F82834B4F81034E0
:1006700084F82A34012010BD08B590F82434042BE6
:1006800002D0B0F8123493B990F80E34022B0ED188
:10069000B0F810345BB9B0F81234C3F3C01103F0F2
:1006A0000F0301EB430100F053FE012008BD0020C1
:1006B00008BD08B590F82434042B02D0B0F81234E9
:1006C00093B990F80E34022B0ED1B0F810345BB908
:1006D000B0F81234C3F3C01103F00F0301EB430170
:1006E00000F058FE012008BD002008BD90F8243419
:1006F000042B10B5044602D0B0F81234F3B994F8C4
:100700000E34012B05D002D3022B05D016E00122B6
:1007100000E000220F4B0DE0B4F81234C3F3C01117
:1007200003F00F0301EB4301204600F04BFE094BA1
:1007300010B101221A8003E0188001E0002010BDF2
:10074000044BC4F818340120022384F82004C4F8B0
:100750001C3410BD5C0B002090F80D3433BB90F8B6
:100760000F340B2B22D8DFE803F00608210A210CF6
:100770000E21101B1D1FFFF7B9BFFFF79ABFFFF730
:100780007BBFFFF724BFFFF7EFBD00F22543C0F8A2
:1007900018340123C0F81C3480F820341846704700
:1007A000FFF725BFFFF73EBFFFF752BF002070479E
:1007B00010B590B00446694600F010FD2046694629
:1007C00004F20C42FFF766FE0023C4F8183484F8E4
:1007D0002034C4F81C3484F8213484F8223423688B
:1007E00020469B6B984718B1B4F814343BB91FE00E
:1007F0002046FFF7B1FF0028F6D100202EE094F844
:100800000C24012A94F8202408D1012AF5D1D4F827
:100810001C249A4215D9C4F81C3412E0002AECD1E9
:10082000D4F81C249A42E8D1204600F063FA14E080
:10083000D4F81C140029E0D120460A4600F05AFDE5
:100840000BE0D4F81C24934204D9930604BF01237F
:1008500084F821342046FFF774FE012010B010BD4B
:1008600010B50446FFF7A4FF20B92046BDE81040AC
:1008700000F08CBD10BD38B50D46044600F0A6FC56
:100880001DB194F82434042BFBD138BD00F20C4088
:100890007047002300F056BAF8B504461D460F46CF
:1008A000164600F0A5FA094B2360012384F824348E
:1008B000002384F82534A4F80474A4F80664A4F88A
:1008C000085484F826342046F8BD00BF68EF0008BD
:1008D00008B500F0A9FC431E5842584108BD70B548
:1008E000049EB34204460D4612D890F82464042EA8
:1008F0000ED100F0DDFC01280AD12046294600F087
:100900001DFD012806D194F82434042B02D1F4E70C
:10091000002070BDB0FA80F0400970BDF8B51F46E8
:1009200090F82434042B04460D4616460CD120467C
:10093000294632463B4600F095FC012806D194F842
:100940002434042B02D1F2E70020F8BDB0FA80F085
:100950004009F8BD03681B69184703689B6918477D
:1009600003689B6A18474FF0FF30704711207047AB
:100970007047704770477047002380F82B347047EA
:100980000048704749020020004870476A02002072
:1009900000487047FE01002010B50446FFF776FFBF
:1009A0004378012B1AD1C278212A07D0222A0BD0F2
:1009B000202A13D10722026183750DE0072202610C
:1009C000074AC260037507E0828812F0010214BF73
:1009D00084F82B3484F82B24184610BD002010BD59
:1009E00063020020072A73B506460C46154624D13B
:1009F000FFF74CFF4378012B1FD1C378202B1CD16C
:100A00000F4821462A4604F091FCB0B121462A46FF
:100A10000B4804F0BDFC23786178E5783068A27952
:100A200003EB0121A37801EB03416379247900945E
:100A3000C46E01EB05613046A04702B070BD00BF37
:100A400063020020012938B505460C4614D1032164
:100A50004022FFF71EFF284605214022FFF719FF1D
:100A6000284604214022FFF714FF28460421402293
:100A7000FFF72EFF204638BD002038BD38B50C4C9E
:100A80002368DB07054611D4204601F015F868B14C
:100A9000084BB5F804241A72120A5A72B5F80624E3
:100AA0009A722046120ADA7201F020F8014838BD25
:100AB000640B00205102002010B50446FFF7ECFE45
:100AC000054B23600023204684F82B349DF8081042
:100AD000FFF7D1FE204610BDE0EF000813B5134626
:100AE0000C464022009205212246FFF7F8FE02B094
:100AF00010BD73B50E4640241346009404213246BF
:100B00000546FFF70BFF38B128460421224602B004
:100B1000BDE87040FFF7DCBE02B070BD30B5D0F864
:100B2000DC440D4611461A46039B24B12846A446D0
:100B3000BDE83040604730BD0346B3F85614B3F803
:100B4000542489B292B29142F7D0B3F85614B3F854
:100B5000542489B292B2914216D0B3F8562492B27C
:100B6000511C89B21A44A3F8561492F85804B3F8E9
:100B70005624812192B292FBF1F101EBC111521A7C
:100B800092B2A3F85624704700207047A0F12C00C1
:100B9000A0F58060FFF7D0BF07B590F82B24019136
:100BA00002F0FF032AB101A90122FFF797FF0120FC
:100BB00000E0184603B05DF804FBA0F12C00A0F59E
:100BC0008060FFF7E9BFF0B593B001AD002629467C
:100BD0006A4604460096FFF78CFF00983146814232
:100BE00039D0B4F85424B4F856E46E5C92B20132B1
:100BF000812792FBF7F303EBC3131FFA8EFED21A81
:100C0000724510D1B4F8563401339BB2A4F856346F
:100C1000B4F856349BB293FBF7F202EBC2129B1A64
:100C20009BB2A4F85634B4F854349BB25A1C92B216
:100C30002344A4F8542483F85864B4F8543481222B
:100C40009BB293FBF2F202EBC2129B1A9BB2A4F886
:100C500054340131C3E7D4F850341BB11B6804F29B
:100C600044409847012013B0F0BD00000E4B10B572
:100C70000446036003F18802E433C0F83034D4F84A
:100C80005034C0F82C2400F244400BB19B689847C4
:100C900004F22C4003F0E6FB044B2360204600F0F6
:100CA00085FA204610BD00BF58F0000868EF000824
:100CB000A0F12C00A0F58060FFF7D8BFA0F58660FA
:100CC000FFF7D4BF10B50446FFF7D0FF204600F071
:100CD00035FF204610BDA0F12C00A0F58060F1E7A3
:100CE000A0F58660EEE77047704770477047704721
:100CF00070470000D0F8002408B5022382F8BC3207
:100D00000430002102F51F72402301F034FE022856
:100D100006D104480449DC22BDE8084003F036BA95
:100D200008BD00BF84F1000892F10008036809B90A
:100D3000986A03E03F3103EB81035868000C8000A0
:100D400070470000F8B5174607290CD8DFE801F016
:100D50000A0A080806060404012504E0022502E048
:100D6000032500E00025B7F5007F23D8CB01DBB2D7
:100D700043EA5104061D5BB1304604F07F01FFF7E2
:100D8000D5FFB84204D20C480C49C52203F0FEF945
:100D900021463046BAB2EBB201F09AFD0228044671
:100DA00004D107480549C82203F0F0F9B4FA84F0E9
:100DB0004009F8BD0020F8BDC3F1000892F1000819
:100DC00084F1000810B5D0F8FC2303681468D3F848
:100DD0000818D3681269501012F0010F18BF22587A
:100DE000C1F30D21204418BFD358BDE81040184767
:100DF0002DE9FF475B4B036006464FF4317000F06E
:100E00008DFE4FF0A0430446736006F108000021F8
:100E1000342204F0BBFB01254FF0020904234022D9
:100E2000B360B261C6F81C903562C6F81090636278
:100E30004D4B636414224D4BE261002718224FF0A2
:100E40001008E3634FF00C0A08201C23E260606383
:100E500026606760A5602562C4F81480A5612561DD
:100E6000A562A764C4F82CA02563A5632764C6F80F
:100E70000044E364202363652423E3652823636639
:100E80002C232565A5652566A566E36630232567C1
:100E90006367A567364B374C01971E60236B2B4366
:100EA0002363236B2B40019340F60221019B00F04A
:100EB0004BFF09204FF4206100F046FF0A2040F666
:100EC0001A2100F041FF0B2040F6022100F03CFF08
:100ED000504640F6022100F037FF636B43F0800379
:100EE00063630297636C43F480436364636C03F44D
:100EF00080430293029B0397636C43F480436364D3
:100F0000636C03F48043341D0393039B86F8CC7316
:100F1000204601F06DF92046802101F021FE39467E
:100F20002046112201F0FBFD29462046112201F046
:100F3000F6FD49464246204601F0F1FD03212046D8
:100F4000322201F0ECFD0C4B0C4A9B68C3F84C219B
:100F50000B4B204683F8438301F0CAF9304604B0B6
:100F6000BDE8F08750F10008450D0008F50C0008B9
:100F7000680B00200038024000ED00E0D9130008A3
:100F800000E100E0D0F8FC334A00D2B230B59C1842
:100F90000125186884F8BC5289B1073203EBC203FB
:100FA00099685A6811F0010F41FA05F10CBF134618
:100FB0004358BDE8304018BF9B5808441847996B08
:100FC0005A6B11F0010F4FEA61010CBF13464358F1
:100FD000BDE8304018BF9B58084418474A00D0F875
:100FE000FC3342F00102D2B230B59C1801251868DA
:100FF00084F8BC5289B1073203EBC20399685A687E
:1010000011F0010F41FA05F10CBF13464358BDE83A
:10101000304018BF9B5808441847196BDA6A11F022
:10102000010F4FEA61010CBF13464358BDE8304041
:1010300018BF9B580844184770B5D0F8FC23906A35
:101040001668536AD46B156C10F0010F4FEA6000FC
:1010500018BF3258304418BFD3589847681015F05D
:10106000010F1CBF33581C5930442346BDE8704063
:101070001847D0F8FC231068D369126A12F0010FE8
:101080004FEA620218BF8158104418BFCB580121A3
:101090001847D0F8FC231068D369126A12F0010FC8
:1010A0004FEA620218BF8158104418BFCB58002184
:1010B0001847D0F8FC2310685369926912F0010FA9
:1010C0004FEA620218BF8158104418BFCB58012163
:1010D0001847D0F8FC2310685369926912F0010F89
:1010E0004FEA620218BF8158104418BFCB58002144
:1010F00018472DE9F14FD0F8FC532F68064605F547
:101100002F794FF000087368984509F1020920D241
:101110004FEA4804C4F3470B4FF0000A594609F858
:1011200002AC3046C4F3460401F001FC44F08004F4
:101130005946304601F0D8FC214609F801AC30464A
:1011400001F0F5FB3046214601F0CEFC08F1010824
:10115000D9E7A8686B686C6CAD6C10F0010F4FEAB2
:10116000600018BF3A58384418BFD358984715F054
:1011700001084FEA650507EB050616BF7B59A44633
:1011800053F804C03046012140220023E047B8F163
:10119000000F01D07B591C590021304640220B46DC
:1011A000A44601B0BDE8F04F6047000038B5064BDB
:1011B000D0F8005403600446043001F0B0F828462B
:1011C00000F0BCFC204638BD50F10008014B08225D
:1011D0009A60704700E100E07047704710B500F575
:1011E000747430220846214604F0D2F820460021CB
:1011F0003022BDE8104004F0C9B9704770B5043022
:10120000D0F8FC530E46002101F0E6FB002385F8E0
:10121000BC32044628B1304605F51F71224604F061
:10122000B7F8204670BD000038B51346D0F800244A
:101230005418022584F8BC52CC01E4B2043044EACC
:1012400051017C3201F097FBA84205D103480449C3
:1012500040F2011202F09AFF012038BD84F100082B
:1012600092F100082DE9F041D0F80064751890461D
:1012700095F8BC421F46ACB1012C16D1CC01E4B2AA
:1012800044EA5101043001F0A7FB044606F17C0159
:101290004046224604F07CF800203C6085F8BC0201
:1012A000BDE8F0812046BDE8F0810120BDE8F08175
:1012B00038B5D0F800440C44022584F8BC52CC0167
:1012C000E4B244EA5101043001F08EFBA842044626
:1012D00007D10648064940F21D1202F057FF20468A
:1012E00038BD002814BF0220012038BD84F1000859
:1012F00092F10008436C934270B505460E461446C1
:1013000004D206480649ED2202F040FF2846324644
:1013100023460121BDE87040FFF7CABFD4F10008A1
:1013200092F1000810B50446043001F0BFFA002124
:1013300020460A46BDE81040FFF7DCBFD0F8003475
:10134000194491F8BC0210F1FF3018BF012070471A
:1013500008B5D0F800340B44002283F8BC22CB013E
:1013600043EA51010430C9B201F06BFB022807D1F6
:10137000044805494FF49872BDE8084002F006BFE2
:1013800008BD00BF84F1000892F100080121FFF7B9
:10139000DFBF000008B5CB0143EA51010430C9B2F8
:1013A00001F07CFB022807D1044805494FF49B72E9
:1013B000BDE8084002F0EABE08BD00BF84F10008A5
:1013C00092F1000800207047024B1868043000F0CA
:1013D000B9BF00BF680B0020014B1868FFF7F4BFCE
:1013E000680B002010B50C4804F032F900220B49BC
:1013F0000B48541C03F048F80A4A536819681368EC
:10140000194202D0D2681B0400E0926813600648BB
:1014100002F040FF2246EAE7F4F100080FF200086C
:10142000B40F00206C0B0020CDCCCC3D37B5194C4F
:101430000123009342F2120220464FF4F851FFF7C5
:101440003BFB04F22C40002102F0E4FF124B23602E
:10145000002503F18802E433C4F83034A4F854546E
:10146000C4F82C24C4F85054A4F85654C4F8DC54DE
:1014700020460A4C0A490B4A00F0EEFA294620465B
:101480001C2204F083F82046052103B0BDE830405B
:1014900002F0CABD880B002058F000086C0B002039
:1014A0006D0C0008980100207FB50023072855D84F
:1014B000DFE800F00413202D3A54544700932A4BE0
:1014C0002A481A6B42F001021A631B6B03F00103F6
:1014D0000093009B07B05DF804FB0193224B244866
:1014E0001A6B42F002021A631B6B03F002030193B2
:1014F000019BEFE702931C4B1E481A6B42F004025B
:101500001A631B6B03F004030293029BE2E703934D
:10151000154B19481A6B42F008021A631B6B03F053
:1015200008030393039BD5E704930F4B13481A6BEF
:1015300042F010021A631B6B03F010030493049B28
:10154000C8E70593084B0E481A6B42F080021A63F5
:101550001B6B03F080030593059BBBE7094802F072
:1015600027FE0020B6E700BF00380240000002401E
:101570000004024000080240000C0240001002403B
:10158000001C0240D8F20008431C10B5044604D1E8
:1015900074220649064802F0F9FD2046002100F0B9
:1015A000D3FB04F00F040120A04010BDF9F20008A5
:1015B00050F3000870B504464B1C0E46218216D02D
:1015C000C1F30310FFF770FF05463046FFF7DCFF5D
:1015D000238A074A656103F00F03206052F8233025
:1015E000A36105F1100318356360A560E56070BD67
:1015F000C4F40008B0F9100000F03EBC10B58369D7
:10160000446971B9216893FAA3F2B2FA82F2032015
:10161000520000FA02F221EA020293FAA3F32260D6
:1016200010BD226893FAA3F1B1FA81F193FAA3F302
:101630000320490000FA01F1B3FA83F322EA010220
:101640005B00012101FA03F31343236010BD000086
:1016500070B5134C23681A69950707D5DA689007A7
:1016600004D56FF002021A6102F02EFD23681A6998
:10167000510713D5DA68520710D56FF00402094EEE
:101680001A615D6A3368EB1AB3F57A7F06D300F00E
:101690008FFD236805F57A729A63356070BD00BFCF
:1016A000B81400206810002030B589B001A903A843
:1016B00001F014FD01F0E2FC00230293254B0190A0
:1016C0001A6C254C42F008021A641A6C02F00802E7
:1016D0000292029A1A6A42F008021A621A6A22F008
:1016E00008021A62069AA3F50B3323604FF0FF330A
:1016F000E3601A4B002A2AD1B0FBF3F00138002531
:10170000606015482561A560656101F053FD144BCB
:10171000144A9B681048C3F80821134B4FF48022E9
:101720005A60294601F082FD04210B4801F07EFD3C
:1017300023680E4A596A1160126802F57A729A6338
:10174000DA68284642F00402DA6009B030BD400091
:10175000D2E700BF00380240B814002040420F001A
:1017600000ED00E05116000800E100E068100020E4
:1017700000B589B002F038FD052101A802F054FC43
:10178000039B019A1A60962002F092FD019B049A35
:101790001B041360962002F08BFDF1E770B50D4637
:1017A000A0B0044602F020FD2B4622468021684668
:1017B00007F028FF051E03DC02F042FD20B070BDDB
:1017C000094B1B6823B903220221084800F0EAFBF9
:1017D000064E00241DF804103046013400F0A2FC2F
:1017E000A542F7D1E8E700BF7C1100206814002073
:1017F0000FB407B504A951F8040B0191FFF7CEFF10
:1018000003B05DF804EB04B0704708B502F05CFB70
:1018100000F0B6FC02F04AFBBDE8084002F054BB01
:1018200008B5084B1B685BB902210748032200F08A
:10183000B9FB4FF416510448BDE8084000F05CBC09
:1018400008BD00BF7C11002068140020022810B5DC
:1018500001DC002010BDC31E0B4A52F823000021FA
:1018600042F8231030B902F0B9FE092303604FF0AB
:10187000FF3010BD03685B699847041EE9DA02F087
:10188000ADFE64420460F2E76C1000200228F8B557
:101890000D4614460EDC134B1B680BB9FFF7C0FF57
:1018A000114E2F19BD4210D015F8011B304600F023
:1018B00039FCF7E703380D4B53F8200038B902F034
:1018C0008DFE092303604FF0FF342046F8BD036806
:1018D000DB689847041EF8DA02F080FE634203607A
:1018E000F3E700BF7C110020681400206C1000207A
:1018F000022810B50C460BDC104B1B680BB9FFF728
:101900008FFF0F4800F0FCFB20700124204610BD23
:1019100003380C4B53F8200030B902F05FFE092366
:1019200003604FF0FF34F1E703689B689847041E9B
:10193000ECDA02F053FE63420360E7E77C1100201B
:10194000681400206C100020022810B516DD033842
:101950000B4B53F820402CB902F040FE09230360E2
:10196000204610BD23682046DB699847041EF7DA3D
:1019700002F034FE644204600024F1E70124EFE742
:101980006C100020022810B506DC02F027FE1D2393
:1019900003604FF0FF3010BD03380A4B53F82000AE
:1019A00018B902F01BFE0923F2E703681B69984788
:1019B000041E04DA02F012FE64420460E9E72046E5
:1019C00010BD00BF6C100020022808B504DC4FF4E5
:1019D00000534B60002008BD02F000FE09230360A5
:1019E0004FF0FF3008BD08B5012000F037F80000C7
:1019F0000C4A136810B51844EFF30881884205D3E8
:101A0000094B0C221A604FF0FF3010BD07490C68DB
:101A100024B10749096821448842F1D21060184670
:101A200010BD00BF80020020F414002074110020BB
:101A300078110020074C08B523680546986802F025
:101A4000DDFE2368D86802F0D9FE0DB1FFF790FEE5
:101A5000FEE700BFB00600200120704708B5FFF781
:101A6000E9FF01207047002103F098BE30B585B032
:101A70000C4602460A49054601A803F013FF214619
:101A800001A803F00BF8044638B12B682846DB693F
:101A9000984710B12046FFF7E6FF204605B030BD5D
:101AA000D3F300087047704708B5FFF7FBFF08BD88
:101AB00008B5FFF7F8FF08BD10B5037803F003037E
:101AC000012B04460CD02BB14FF46872054906482F
:101AD00002F05CFB237843F002032370012010BD69
:101AE000002010BDF4F3000848F4000810B5037896
:101AF00003F00303022B044605D04FF46A72054934
:101B0000054802F043FB237823F0030343F001036D
:101B1000237010BDF4F300086EF4000810B503F054
:101B2000ABFB044610B9024802F042FB204610BD50
:101B3000D7F3000808B103F0A7BB7047FFF7FABF5F
:101B4000034610B553F8042B044602B9036022681B
:101B50009A4204D05B220349034802F017FB206835
:101B600010BD00BF63F30008BFF3000810B50446C2
:101B70000948FFF7E5FF0023084A194652F82300F9
:101B8000A04208BF42F823100133402BF6D102488F
:101B9000FFF7D6FF10BD00BF6C1100206C100020B5
:101BA0002DE9FF4789464049064603F01DFF0446DC
:101BB00028B9FFF735FE204604B0BDE8F0873B4961
:101BC000304603F011FF18B9FFF72AFE0124F2E7AF
:101BD0003749304603F008FF18B9FFF721FE022409
:101BE000E9E73448344DFFF7ABFF0024A84655F829
:101BF0002470002F40D00134402CF8D102F0EEFCCC
:101C0000182303602B48FFF79BFF0EE0314602A824
:101C100002F053FB02A802F094FB064640B902F022
:101C2000DDFC0223036045F824604FF0FF34C2E777
:101C300002A802F074FB074602A81FB102F078FB6D
:101C400001902BE002F062FB06460028E7D0036813
:101C500002A8D3F808A002F04EFB29F48033024614
:101C600001A93046D0470646C0B102F0B7FC764223
:101C7000066045F82470D8E74FF0FF330D4845F86B
:101C80002430FFF75DFF337801973A2BBED102AACB
:101C90000A49304603F02CFE029B0193019B48F851
:101CA0002430033487E700BFB5F40008BCF4000813
:101CB000ADF400086C1100206C100020D3F3000874
:101CC00070477047074B08499A68084810B5043AAE
:101CD00052F8044F41F8044F8142F9D14FF00052BD
:101CE0009A6010BD00ED00E0FCFFFF1F9401002092
:101CF00008B5FFF7E7FFFFF788FDFFF7E2FF08BD34
:101D000008B5FFF7DDFFBDE80840FFF76BBB30B556
:101D1000C36891FAA1F4B4FA84F491FAA1F103250D
:101D2000B1FA81F1640005FA04F4490023EA0403DE
:101D300002FA01F11943C16030BD012A02D0022A22
:101D400018BF0022FFF7E3BF2DE9F0410E46411C0A
:101D5000044604D13E224449444802F017FA04F0F4
:101D60000F08434BC4F3031053F82850FFF79CFBB4
:101D700006F007070446836895FAA5F1B1FA81F1E8
:101D800095FAA5F20320490000FA01F1B2FA82F2B5
:101D900023EA01035200022101FA02F21343A36075
:101DA00087425AD8DFE807F05E1D021DB8F1070F21
:101DB000C6F303203BD9626A2B0A93FAA3F1B1FA66
:101DC00081F193FAA3F34FF00F0EB3FA83F3890076
:101DD0000EFA01F19B0022EA010200FA03F3134319
:101DE00063623B46226895FAA5F0B0FA80F095FA56
:101DF000A5F14FF0030EB1FA81F140000EFA00F0A8
:101E0000490022EA00028B40013F1343012F236067
:101E100005D8636832074CBF2B43AB436360C6F3FE
:101E2000011229462046BDE8F041FFF786BF226A2D
:101E300095FAA5F3B3FA83F395FAA5F14FF00F0ED7
:101E4000B1FA81F19B000EFA03F3890022EA030242
:101E500000FA01F313432362C3E7672202490548EE
:101E600002F094F90023BDE704F5000850F30008E0
:101E7000C4F4000859F50008431C70B506460D4629
:101E800004D188221B491C4802F080F906F00F0299
:101E90001A4BC6F3031053F82240FFF705FB04FB6F
:101EA00004F2016802EB42030B40B3FBF2F3013B87
:101EB000012B05D8EB1E022B436809D8234343604E
:101EC000032D08D101222146BDE87040FFF735BF40
:101ED00023EA04034360012DF4D0052D01D0022D27
:101EE00001D10222EFE721460022BDE87040FFF752
:101EF0000EBF00BF04F5000850F30008C4F400084A
:101F000042681649920110B504685450531882680B
:101F10005A60C2689A600269DA6042691A61026AAC
:101F20009A610022DA84DA619A84DA859A85B0F9B6
:101F30001A2001320AD108225A61184601F093FA98
:101F400058B10748BDE8104002F032B9B0F9182086
:101F500001320CBF04220C22EEE710BDE811002074
:101F60005BF500084368094A9B0182B0D3581A68A0
:101F7000120706D5002201921A6801925A6801924E
:101F8000019A1868C0F3401002B07047E8110020B1
:101F90004368034A9B01D3581868C0F3C0107047C8
:101FA000E8110020F0B50E4685B004464949304698
:101FB000154602F079F848490746284602F074F8B9
:101FC0000146384602F052F82060013004D13E222A
:101FD0004249434802F0DAF82368424A93421ED04D
:101FE00002F5806293425ED0A2F5504293422BD11B
:101FF0003D4B1A6A42F400321A621A6A22F4003225
:102000001A62002202921A6C42F400321A641B6CAB
:1020100003F400330293029B0123636014E0324B0C
:102020005A6A42F010025A625A6A002122F01002E3
:102030005A6201915A6C42F010025A645B6C616002
:1020400003F010030193019B2249304601F0F0FF99
:102050002149284601F0ECFF721C03D001213046D3
:10206000FFF70AFF6B1C03D001212846FFF704FF8E
:102070004FF41653A3600023E3602361636123627E
:10208000268365832046FFF73BFF2268174B9A4261
:1020900007D1174B174801221A6021464C2203F042
:1020A00077F905B0F0BD104B5A6A42F020025A622F
:1020B0005A6A22F020025A62002203925A6C42F0BD
:1020C00020025A645B6C03F020030393039B0523F7
:1020D000A3E700BF84F2000830F2000873F500089F
:1020E000DEF50008001001400038024000440040C6
:1020F0007C110020681400208160FFF701BF000000
:1021000038B5446805462846FFF72CFF0028FAD06A
:10211000A401034B1B595868C0F3080038BD00BF29
:10212000E811002070B5456806460C463046FFF7BA
:102130002FFF0028FAD0AD01024B5B59C4F308040D
:102140005C6070BDE8110020DFF820D0002103E0C2
:10215000074B5B58435004310648074B42189A42DC
:10216000F6D301F001FEFEF769F870470000022087
:102170002CFD0008980100203C0B0020FEE7000029
:1021800008B50A4B1A6842F400721A601A6842F4E1
:1021900080621A601A6842F480721A600F20FFF79A
:1021A00083FA00F023F8002008BD00BF003C024085
:1021B000024A136801331360704700BFB414002053
:1021C000014B1868704700BFB414002037B5019068
:1021D000FFF7F6FF019C631C054618BF0134FFF7AB
:1021E000EFFF401BA042FAD303B030BD70477047E9
:1021F000F0B504468BB0002877D090F8C83303F0D0
:10220000FF0263B9436880F8B82303F2B93300F2E0
:10221000B9310344994265D12046FFF7E8FF2546CE
:10222000032355F8100B84F8C83301F08AF90FCD59
:102230006E460FC60FCD0FC695E8030086E8030073
:10224000271D97E80E00206801F03BF90021206867
:1022500001F07DF900212346224604F110050126F4
:10226000084682F83810D18701310F2982F8396089
:1022700082F83B0010645064D06402F11C02F0D17B
:102280000022D4F800E0114602F1400083F8F82162
:10229000DA870EEB800001320F2A83F8F91183F8F8
:1022A000FB11C3F80012C3F80412C3F80C1241600A
:1022B00003F11C03E8D10FCD6E460FC60FCD0FC63C
:1022C00095E8030086E80300704697E80E0001F0E9
:1022D00055F9012384F8C833206801F09BFC0020E5
:1022E0000BB0F0BD01F8012B94E70120F8E770472F
:1022F00010B50446006801F081FC206801F01BF96C
:10230000002010BD10B50446006801F01AF92068DD
:1023100001F043FC206801F07DFC002010BD10B5E9
:10232000044658B1032380F8C833FFF7EBFF20467B
:10233000FFF7DDFF002084F8C80310BD012010BDA9
:10234000704770472DE9F04FD0F8009087B00446F1
:10235000484601F099FC0290002840F02E81206848
:1023600001F064FC002800F02881206801F05EFC88
:10237000850748BF2268206842BF536903F0020303
:10238000536101F053FC10F400250AD0206801F0DD
:1023900051FC09F530660746A2460025002F40F0A3
:1023A0000F81206801F042FC41030BD5206801F049
:1023B00049FC2646039009F510680025039B002B75
:1023C00040F03F81206801F031FC00280DDAD9F897
:1023D000043823F00103C9F804382046FEF759FEFB
:1023E0002268536903F000435361206801F01EFC2A
:1023F00006050BD5D9F80838D80702D52046FEF7D0
:1024000038FE2268536903F400635361206801F0C9
:102410000DFCC10437D509F500667368206823F008
:1024200001037360102101F045F9616809F510633B
:10243000FF220298884240F099814FF0FF33B36148
:10244000F36943F00113F361236B002B00F09681D5
:10245000D6F8843043F00B03C6F88430736C43F035
:102460000B037364D9F80038217C206823F4FE63E1
:10247000C9F8003804F5737201F025FC226853692D
:1024800003F480535361206801F0D0FB82041DD512
:10249000206801F0FDFB2068C36823F47053C3601B
:1024A00001F031F9002840F072812268E0604FF4B9
:1024B00000736361D36843F41053D3602046FEF782
:1024C00018FE2268536903F400535361206801F039
:1024D000ADFBC3062BD52268936923F010039361EB
:1024E000D9F82060C6F34343022B06F00F0840F0F2
:1024F000AF8147F6F0731E4214D01C2707FB084734
:10250000C6F30A163246D7F80412484601F0FFFA1D
:10251000D7F804323344C7F80432D7F810321E44D7
:10252000C7F810622268936943F010039361206832
:1025300001F07CFB070707D52046FEF743FC226825
:10254000536903F008035361206801F06FFBC60272
:1025500008D5E9B22046FFF7F4FE2268536903F478
:1025600080135361206801F061FB800208D5E9B255
:102570002046FFF7E5FE2268536903F40013536118
:10258000206801F053FB410007D52046FEF791FD7E
:102590002268536903F080435361206801F046FBD1
:1025A00042070AD523685D686B0702D52046FEF70F
:1025B00090FD23685A6815435D6007B0BDE8F08F51
:1025C000F80738D55FFA85FB5946206801F042FBD1
:1025D00010F0010F804621D0216901239942B36098
:1025E0000CD13169DAF80002C1F31201411ACAF8BC
:1025F0001012DAF804120844CAF8040259462046B8
:10260000FEF7C0FC2169012908D13DB9D4F80C229C
:1026100022B904F57372206801F055FB18F0080F19
:1026200004D02046FEF708FD0823B36018F0100F11
:102630001CBF1023B36001357F0820360AF11C0A45
:10264000ACE6039BDA0707D4039B5B0801350393D1
:102650001C3608F12008B1E65FFA85FB5946206870
:1026600001F002FBC307074624D50123AB4009F65E
:102670003401DB4351E8002F1A4041E800200028D4
:10268000F8D10123C8F808302369012B01BF736C0E
:10269000326C9B18736459462046FEF79FFC2169F3
:1026A000012907D135B9E36C23B904F573722068A9
:1026B00001F009FB380744BF0823C8F80830F906C1
:1026C00044BF1023C8F808307A0644BF4023C8F836
:1026D0000830BB0744BF0223C8F808303F06B3D513
:1026E00023680493F76C336DFF1A336C9F4228BF45
:1026F0001F46049B03F5106307F1030A03EB451320
:102700004FEA9A0A0593059B9B699BB253450FD8E4
:10271000002F99D10123049AAB4002F6340BDB431E
:102720005BE8002F1A404BE800210029F8D18BE725
:10273000326DF36C9342EBD9002BE9D0376C0498DF
:102740009B1A9F4228BF1F46237C00935A46BBB268
:10275000716C01F0C8F9736C3B447364336D07F11D
:10276000030A3B444FEA9A0A3365CCE702989A6021
:102770000130C3F80822029020335AE6736943F00F
:102780000B037361336943F00B0333616AE6032380
:10279000E3604023636100F06BFC354B354A034432
:1027A0009342236804D8DA6842F47052DA6085E60E
:1027B000314A324902448A4203D8DA6842F460520C
:1027C000F4E7A0F574022E49A2F510528A4203D80C
:1027D000DA6842F45052E9E7A0F183722949A2F580
:1027E000E7428A4203D8DA6842F44052DEE7264ADA
:1027F000264902448A4203D8DA6842F43052D5E7C7
:10280000234A244902448A4203D8DA6842F4205217
:10281000CCE7214A214902448A4203D8DA6842F4CB
:102820001052C3E7A0F1B7721D49A2F558528A426F
:1028300003D8DA6842F40052B8E71A4A1A49024447
:102840008A42DA6894BF42F4E05242F4C052ADE7E3
:10285000062B7FF467AE082204F5737148461C27E7
:1028600001F055F907FB0847C6F30A1655E600BF05
:10287000405327FFFF340C00401E1BFF3F420F0058
:102880007F4F12001FD6130060B6E5FE5FE316000F
:1028900000D3CEFE3F771B00C05BB3FEBF9121008B
:1028A0001F753800E05459FEDF9C410090F8B833A2
:1028B000012B10B5044609D0012380F8B833006815
:1028C00001F08CF9002084F8B80310BD022010BD7F
:1028D00070B54EB2002E01F07F044FF01C05B5BF5D
:1028E00005FB040105FB0101383101F5FC71E4B27F
:1028F000002EB8BFCC80022B0C70CB704FEAD6757F
:1029000008BF0023044408BF0B714D7094F8B9331D
:102910008A60012B09D0012384F8B933006800F0E4
:102920000DFF002084F8B90370BD022070BD4BB2CA
:10293000002B10B54FF01C0201F07F04B5BF02FB65
:10294000040102FB0101383101F5FC71E4B20C70A5
:10295000DB0F04444B7094F8B933012B09D00123E9
:1029600084F8B933006800F028FF002084F8B90328
:1029700010BD022010BD38B501F07F051C2404FBFA
:102980000504C4F80C320023C4F80422C4F8103241
:1029900084F8F93184F8F8510369012B08BFC4F8B1
:1029A0000822441994F8B923012A13D01C2101FBF1
:1029B0000501012284F8B92301F5FC71DAB200683F
:1029C0002DB901F01FF8002084F8B90338BD00F0DC
:1029D0004FFFF8E7022038BD1C2301F07F0103FB05
:1029E0000101B1F81002704738B501F07F051C24D1
:1029F00004FB0504E364002323650123626484F877
:102A0000393084F838500369012B08BFA264441997
:102A100094F8B923012A12D01C2101FB05010122DF
:102A200084F8B9233831DAB200682DB900F0EAFF32
:102A3000002084F8B90338BD00F01AFFF8E702203F
:102A400038BD4BB270B5002B01F07F054FF01C0272
:102A5000B5BF02FB050102FB0101383101F5FC7134
:102A6000EDB20122DB0F46198A700D704B7096F89B
:102A7000B933934204460FD086F8B923006801F0B9
:102A800054F82DB904F57372217C206801F01BF90C
:102A9000002086F8B90370BD022070BD38B54BB276
:102AA000002B01F07F044FF01C02B5BF02FB0401B4
:102AB00002FB0101383101F5FC71E4B20C70DB0F4F
:102AC000002504448D704B7094F8B933012B09D064
:102AD000012384F8B933006801F046F884F8B9534B
:102AE000284638BD022038BD01F07F0310B5C41858
:102AF00094F8B923012A10D0012284F8B9230A06D8
:102B000007D51946006800F0D5FD002084F8B90308
:102B100010BD006800F0E0FDF7E7022010BD00687E
:102B200070B5436A21B943EA02438362002070BD55
:102B3000846A002503EB14434E1EECB2B44205F147
:102B4000010506DB3F3100EB810043EA02434360AD
:102B5000ECE7403400EB8404646803EB1443ECE7D7
:102B600003680020596270470368F7B50446D80728
:102B70003BD42368990700F1868023681E0700F183
:102B8000D18023685D072AD5002301938E4B8F4D9A
:102B90001A6C42F080521A641B6C03F0805301934C
:102BA000019B2B6843F480732B60FFF709FB0646FB
:102BB0002B68DA0540F1D880A368834D012B40F0E3
:102BC000DA802B6F43F001032B67FFF7F9FA7E4D94
:102BD000064641F288372B6F9B0740F1ED80A269D2
:102BE000002A40F0F980002015E0774B9A6802F047
:102BF0000C02042A07D09A6802F00C02082A0CD1B1
:102C00005B685A0209D5704B1B689B03B1D563689A
:102C1000002BAED1012003B0F0BD63686A4DB3F55F
:102C2000803F11D12B6843F480332B60FFF7C8FA43
:102C3000654D06462B689F039BD4FFF7C1FA801BA6
:102C40006428F7D90320E6E7B3F5A02F04D12B6859
:102C500043F480232B60E5E72A6822F480322A605F
:102C60002A6822F480222A60002BDFD1FFF7A8FA1D
:102C700006462B6898037FF57CAFFFF7A1FA801B0F
:102C80006428F6D9DEE7504B9A6812F00C0F07D093
:102C90009A6802F00C02082A16D15B68590213D414
:102CA000494B1A68920702D5E268012AB2D1186826
:102CB000F82292FAA2F2B2FA82F122698A4020F056
:102CC000F8010A431A6058E7E268414BDAB1012281
:102CD0001A60FFF775FA3C4D06462B689B070CD52A
:102CE0002968F82393FAA3F3B3FA83F22369934094
:102CF00021F0F80213432B603FE7FFF761FA801BD6
:102D00000228EAD99EE71A60FFF75AFA2E4D0646C6
:102D10002B689F077FF531AFFFF752FA801B02281F
:102D2000F6D98FE762692B4B7AB101221A60FFF75F
:102D300047FA254D06466B6F98073FF522AFFFF720
:102D40003FFA801B0228F6D97CE71A60FFF738FAB1
:102D50001D4D06466B6F99077FF513AFFFF730FAED
:102D6000801B0228F6D96DE7FFF72AFA801B02289C
:102D70007FF61EAF66E7052B04D12B6F43F00403EB
:102D80002B671EE72A6F22F001022A672A6F22F0C2
:102D900004022A67002B7FF418AFFFF711FA41F203
:102DA000883706462B6F98077FF519AFFFF708FAAB
:102DB000801BB842F6D945E7FFF702FA801BB842FC
:102DC0007FF609AF3EE700BF0038024000700040C8
:102DD00000004742800E47422B4DAB6803F00C03C6
:102DE000082B3FF417AF294E0023022A33603ED14F
:102DF000FFF7E6F907462B68990132D447F6C0770A
:102E000097FAA7F74FF44032B7FA87F792FAA2F28F
:102E10004FF07061B2FA82F091FAA1F1226AE3698F
:102E20001343626A02FA07F7A26A5208013A824023
:102E30003B431343E26A144CB1FA81F102FA01F107
:102E40000B436B6001233360FFF7BAF90546236833
:102E50009A013FF5C8AEFFF7B3F9401B0228F6D937
:102E6000F0E6FFF7ADF9C01B0228C4D9EAE6FFF788
:102E7000A7F904462B689B017FF5B5AEFFF7A0F9D3
:102E8000001B0228F6D9DDE6003802406000474208
:102E9000194A936803F00C03042B10B503D0082BD8
:102EA00003D0164810BD164810BD5168536801F094
:102EB0003F0113F4800F47F6C074536894FAA4F0EE
:102EC000B0FA80F003EA040323FA00F314BF0C48BD
:102ED0000A48B0FBF1F05843074B4FF440325B68AF
:102EE00092FAA2F2B2FA82F203F44033D3400133F1
:102EF0005B00B0FBF3F010BD003802400024F4008A
:102F000000127A00564B1A6802F00F028A422DE92D
:102F1000F04105460E4630D32A68940737D4D007CF
:102F20003DD44F4B1A6802F00F029642C0F08880E1
:102F30002A68510700F18C80130707D5494A29698F
:102F4000936823F4604343EAC1039360FFF7A0FF53
:102F5000444BF0229B6892FAA2F2B2FA82F203F09A
:102F6000F003D340404AD35CD840404B18600F2058
:102F7000FEF79AFB0020BDE8F081CAB21A701B6808
:102F800003F00F039942C7D00120BDE8F081354915
:102F9000A8688B6823F0F00303438B60BFE76A687F
:102FA000304B012A1ED11B6813F4003FECD02D4C8E
:102FB000A36823F003031343A360FFF701F96B68D1
:102FC000012B074641F2883816D1A36803F00C03A1
:102FD000042BA6D0FFF7F4F8C01B4045F5D9032019
:102FE000BDE8F081911E01291B6802D813F0007F13
:102FF000DCE713F0020FD9E7022B0AD1A36803F034
:103000000C03082B8DD0FFF7DBF8C01B4045F5D92A
:10301000E5E7032B0FD1A36803F00C030C2B80D042
:10302000FFF7CEF8C01B4045F5D9D8E7FFF7C8F841
:10303000C01B4045D3D8A36813F00C0FF6D170E73E
:10304000F2B21A701B6803F00F039E429CD16FE727
:103050000449E8688B6823F4E05303438B606BE713
:10306000003C024000380240FAF5000884020020CB
:10307000014B1868704700BF84020020084B4FF4D2
:10308000E0529B6892FAA2F2B2FA82F203F4E053A1
:10309000D340044AD35C044A1068D840704700BF4C
:1030A000003802400AF6000884020020084B4FF462
:1030B00060429B6892FAA2F2B2FA82F203F4604391
:1030C000D340044AD35C044A1068D840704700BF1C
:1030D000003802400AF60008840200200F23036033
:1030E0000B4B9A6802F0030242609A6802F0F00209
:1030F00082609A6802F4E052C2609B68DB0803F4C5
:10310000E0530361034B1B6803F00F030B60704730
:1031100000380240003C024070470000224A036829
:1031200090420ED0B0F1804F0BD0A2F57C4290427D
:1031300007D002F58062904203D002F5806290428F
:1031400019D14A6823F070031343174A904204D1FF
:10315000CA6823F44073134318E0B0F1804FF7D0EE
:10316000124A9042F4D002F580629042F0D002F50B
:1031700080629042ECD00E4A9042E9D002F5806223
:103180009042E5D002F580629042E1D003608B6806
:10319000C3620B688362044B984204BF0B690363EC
:1031A00001234361704700BF00000140000400405C
:1031B0000040014010B50446A0B190F8393003F04A
:1031C000FF021BB980F83820FFF7A6FF022384F81E
:1031D00039302068211DFFF7A1FF012384F8393021
:1031E000002010BD012010BD036A10B501248C40E1
:1031F00023EA04030362036A8A401A43026210BD91
:1032000010B5044601220068FFF7EEFF2368064A66
:10321000934202BF5A6C42F400425A641A6842F068
:1032200001021A60002010BD00000140FFF7E8BF56
:103230002DE9F0470668C2683369C16923F4405339
:1032400013433361044683680069F268034360698D
:1032500022F41642034322F00C020B431343F360A3
:103260007369A26923F440731343B1F5004F73618E
:103270007A4B7CD19E4203D003F580639E4244D1B9
:10328000FFF714FF192505FB00F360684FF0640990
:103290004000B3FBF0F3B3FBF9F34FEA0318FFF779
:1032A00005FF636868435B00B0FBF3F7FFF7FEFEC2
:1032B000636868435B00B0FBF3F3B3FBF9F309FB0E
:1032C0001373DB003233B3FBF9F35B0003F4F877DD
:1032D000FFF7ECFE626868435200B0FBF2FAFFF7BA
:1032E000E5FE636868435B00B0FBF3F3B3FBF9F3FF
:1032F00009FB13A3DB003233B3FBF9F303F007033D
:1033000043443B44B360BDE8F087FFF7B7FE19259F
:1033100005FB00F360684FF064094000B3FBF0F375
:10332000B3FBF9F34FEA0318FFF7A8FE636868439D
:103330005B00B0FBF3F7FFF7A1FE636868435B0037
:10334000B0FBF3F3B3FBF9F309FB1373DB00323388
:10335000B3FBF9F35B0003F4F877FFF78FFE6268C5
:1033600068435200B0FBF2FAFFF788FEB9E79E42CD
:1033700002D03B4B9E4240D1FFF798FE676819256B
:103380004FF0640905FB00F3BF00B3FBF7F3B3FB99
:10339000F9F31F01FFF78AFE636868439B00B0FBE7
:1033A000F3F8FFF783FE636868439B00B0FBF3F319
:1033B000B3FBF9F309FB13831B013233B3FBF9F3BE
:1033C00003F0F008FFF772FE626868439200B0FBFA
:1033D000F2FAFFF76BFE636868439B00B0FBF3F300
:1033E000B3FBF9F309FB13A31B013233B3FBF9F36E
:1033F00003F00F0343EA080383E7FFF73FFE676824
:1034000019254FF0640905FB00F3BF00B3FBF7F388
:10341000B3FBF9F31F01FFF731FE636868439B00BC
:10342000B0FBF3F8FFF72AFE636868439B00B0FB2C
:10343000F3F3B3FBF9F309FB13831B013233B3FB43
:10344000F9F303F0F008FFF719FE62686843920091
:10345000B0FBF2FAFFF712FEBDE700BF001001401B
:1034600000140140704710B5044640B390F839305D
:1034700003F0FF021BB980F83820FFF7F3FF226842
:10348000242384F83930D36823F40053D3602046D2
:10349000FFF7CEFE23681A6922F490421A615A6936
:1034A00022F02A025A61DA6842F40052DA600020FF
:1034B0002023E06384F8393084F83A3010BD0120CD
:1034C00010BD84B038B505AD85E80E000A9B012B10
:1034D000044626D1836B23F480338363C36823F4CB
:1034E000840323F04003C360C36823F44013C36024
:1034F000119B012B02BFC36843F48013C36000F02B
:1035000005FC089B012B07D1A36843F00603A360C9
:10351000A36843F02003A360BDE83840002004B056
:103520007047C36843F04003C36000F0EFFB4FF403
:103530008033A363E5E7836843F0010383600020E1
:103540007047836823F0010383600020704708B54B
:10355000C368012923F0C043C36008D1C36843F0A6
:103560000053C3603220FEF731FE002008BD002961
:10357000F8D1C36843F08043C360F3E784B02DE91A
:10358000F041044607A880E80E00119E0A9FA36B35
:103590008846A6B943F40013A3630023C4F8003E91
:1035A000D4F80038C4F800380C9B012B04F50065F2
:1035B0005ED1099939B9204600F09EF807E043F43E
:1035C0000023A363E9E71946204600F095F810218F
:1035D000204600F06FF8204600F07EF800234FF000
:1035E000FF322B6119466B614FF09040AA614FF09A
:1035F000FF0EEB6104F5106243453BD1002104F559
:10360000306208464FF0904E4FF0FF0C8B423ED197
:103610002B69012F23F480732B6108D1234B2B637B
:103620002B6B43F4803343F003032B632B6B00239A
:10363000A3616FF0804363611FB9A36943F0100376
:10364000A361A2691A4B1343A3610D9B1BB1A3692C
:1036500043F00803A361012E01BFA36943F0804337
:1036600043F00403A361BDE8F041002004B07047BB
:103670000321A0E7D2F800C0BCF1000FB4BF106076
:10368000116001331161C2F808E02032B4E7D2F8CA
:103690000080B8F1000FB4BFC2F800E01060013143
:1036A0001061C2F808C02032B0E700BF00018000FE
:1036B00000383C80890141F02001064A0161013A4D
:1036C00005D0036913F02003F9D118467047032091
:1036D000704700BF410D03001023064A0361013A01
:1036E00005D0036913F01003F9D118467047032081
:1036F000704700BF410D0300D0F800381943C0F8EF
:1037000000180020704700F50062D0F8080810F09B
:10371000060012D0936803F00603022B0CD09368C6
:1037200003F00603062B07D0936803F00603042B6F
:1037300014BF0020022070470320704730B54B783B
:103740000C78D0F81C5800F50062012B1BD1A34067
:103750009BB22B4300F51060D36100EB44131A6851
:1037600012040ED48A68C8781D68C2F30A0242F0B7
:10377000805242F4004242EA804040EA84502843AA
:103780001860002030BD4FF48033A34000F5306056
:103790002B4300EB4410D36103681B04F1D48B6806
:1037A000C9780268C3F30A0343F0805343F400432B
:1037B00043EA814313430360E3E700F001B80000EC
:1037C00070B54B78012B0E46054609784FF0200363
:1037D00026D100F5106213FB01231A6822F400427F
:1037E0001A604FF000621A604FF080421A601F4A60
:1037F000013A01D1032070BD9C6814F08044F7D1D8
:1038000010212846FFF756FF3178D5F81C280123F0
:103810008B409BB222EA0303C5F81C38204670BDDA
:1038200000F5306213FB01231A6822F400421A608B
:103830004FF000621A604FF080421A600B4A013A62
:10384000D8D0986810F01000F9D1D5F8043843F4B6
:103850008063C5F80438D5F81C384FF480328A40AC
:1038600023EA0203C5F81C3870BD00BF410D0300F8
:10387000F7B54B784C69012B0B7879D1202600F5F0
:10388000106516FB03531E69002C38D126F0FF5635
:1038900026F4C0161E611E6946F400261E611E69CC
:1038A000F60CF6041E61012A50D10B780C6905EB69
:1038B00043135C61CC78012C0FD1D0F808380E7816
:1038C00013F4807F4FF0200313FB06531E680CBFD8
:1038D00046F0005646F080561E600E7805EB461501
:1038E000012C2B6843F004432B6005D18B8A009296
:1038F000C968324600F0F7F8002003B0F0BDF60CBE
:10390000F6041E611E698F6826F0FF5626F4C01665
:103910001E61E619013EB6FBF7F7394ED3F810E009
:1039200006EAC74646EA0E061E611F69C4F3120680
:103930003E431E61CE78012E5CD11E6926F0C04642
:103940001E611E6946F000561E61ACE7CB78012B64
:1039500053D0002CAED00B78012400F634069C40E6
:1039600056E8003F234346E80037002FF8D1A1E78F
:1039700000F5306505EB43131D69ED0CED041D6189
:103980001D6925F0FF5525F4C0151D618D68FCB932
:103990001C69C5F3120525431D611C6944F400240C
:1039A0001C61012A04BFCA685A61CA78012A0AD177
:1039B000D0F8082812F4807F1A680CBF42F0005239
:1039C00042F080521A601A6842F004421A6093E78B
:1039D0000B4E1F692C44013CB4FBF5F406EAC446C7
:1039E0003E431E61A4B21E696543C5F3120535430B
:1039F0001D61D6E7012AACD157E71C465DE700BF41
:103A00000000F81F70B54B784D69012B0B7847D13A
:103A1000202400F5106614FB03631C69CDB924F063
:103A2000FF5424F4C0141C611C6944F400241C617C
:103A30001C69E40CE4041C610D7806EB4513012AB3
:103A40001C6844F004441C601BD10A695A610020C0
:103A500070BDE40CE4041C611C6924F0FF5424F4E0
:103A6000C0141C618C68A54288BF4C611C6944F479
:103A700000241C614C691D69C4F312042C431C61B1
:103A8000DAE74B69002BE2D0012200F63400AA40AD
:103A900050E8003F134340E800310029F8D1D6E751
:103AA00000F5306000EB43100369DB0CDB040361BD
:103AB000036923F0FF5323F4C01303618B6805B13E
:103AC0004B61046944F4002404610469C3F31203E4
:103AD0002343012A036104BFCB684361036843F0B9
:103AE00004430360B3E710B59DF808404CB90333B5
:103AF00000F5805023F0030300EB02320B4499429F
:103B000001D1002010BD51F8040B1060F7E703321B
:103B100022F003020A4400F58050914201D1084688
:103B20007047036841F8043BF7E74B780A78012BAC
:103B30004FF020030BD100F5106013FB0200036867
:103B4000002B0BDB036823F08043036006E000F5E5
:103B5000306013FB02000368002BF3DA036843F4C0
:103B600000130360002070474B780A78012B0CBFCC
:103B700000F5106000F53060202313FB020003689D
:103B800023F400130360CB78023B012B9EBF036834
:103B900043F0805303600020704738B500F52E6174
:103BA000044600F51063FF229A60C3F80822203310
:103BB0008B42F9D100254FF0FF32C4F81828204677
:103BC000C4F81058C4F81458C4F81C58FFF784FD02
:103BD00010212046FFF76EFD284638BDD0F800388A
:103BE00023F4FE63C0F80038D0F80038090101F46E
:103BF000FE611943C0F800180020704708B5D0F8DE
:103C0000043823F00203C0F804380320FEF7DEFA7C
:103C1000002008BD08B5D0F8043843F00203C0F80E
:103C200004380320FEF7D2FA002008BD42698069FB
:103C300010407047D0F8183800F50060C06918408F
:103C4000000C7047D0F8183800F50060C0691840C3
:103C500080B2704700F5306303EB411100F500605E
:103C60008A6840691040704710B5D0F81048D0F805
:103C7000343800EB4110CB4000F51060DB01806868
:103C8000DBB22343184010BD406900F001007047CB
:103C9000D0F8003923F4FF6323F00703C0F800399C
:103CA00000F500639A6802F00602042A02BFD0F809
:103CB000002942F00302C0F800295A6842F48072D9
:103CC0005A600020704710B50024C0F8104BD0F89F
:103CD000104B44F40024C0F8104BD0F8104B44F0C3
:103CE0001804C0F8104BD0F8104B012900F53063D0
:103CF00044F0C04408BF4FF08023C0F8104B04BF0D
:103D0000C0F8142BC0F8003B002010BD0A4B013B4B
:103D100001D1032070470269002AF8DA0369064AD4
:103D200043F001030361013AF3D0036913F0010387
:103D3000F9D11846704700BF410D03007FB50F232E
:103D40000193022302934FF480520023032101A820
:103D5000039304920593FFF7D5F8B0FA80F0400979
:103D600007B05DF804FB00000F49D1F8883043F438
:103D70007003C1F888300D4B1A68002042F0010230
:103D80001A6098601A6822F0847222F480321A60F5
:103D9000074A5A601A6822F480221A60D8604FF0ED
:103DA00000638B60704700BF00ED00E00038024008
:103DB0001030002400B58FB01C4B002100911A6C0C
:103DC00042F080521A641B6C194A03F0805300932E
:103DD000009B0191136823F4404343F400431360B4
:103DE000136803F440430193019B01230293C0B97C
:103DF0004FF480330393022308934FF48003099315
:103E000004230A930C930823C8220DEB03000B92A2
:103E10000D93FEF7A9FE38B9FFF790FF0FB05DF8DC
:103E200004FB4FF4A023E5E70020F7E70038024049
:103E30000070004010B58EB000241A4B00941A6C2C
:103E400042F080521A641B6C174A03F080530093AF
:103E5000009B0194136823F4404343F40043136030
:103E60001368039403F440430193019B09940323D3
:103E7000029301230593102306930223C82208937B
:103E800008230B920DEB030004220A930C920D936E
:103E9000FEF76AFE18B9FFF751FF0EB010BD2046BD
:103EA000FBE700BF003802400070004008B5012069
:103EB000FFF780FF30B9FFF77DFF18B9FFF7BAFFB2
:103EC00000B9FEE708BD0000174A1849936803F0DF
:103ED0000C03042B10B50DD0082B0DD0144B0B6028
:103EE000114B144A9B68C3F30313D25C0B68D34095
:103EF0000B6010BD104BF2E75468506852686302C3
:103F0000C2F3881200F03F004CBF0B4B084BB3FBD1
:103F1000F0F35343044A5268C2F3014201325200A3
:103F2000B3FBF2F3DBE700BF00380240840200205D
:103F30000024F400FAF5000800127A00054B186816
:103F400030B901221A60044B044A1A60FDF7ACBB79
:103F5000704700BF80110020B8140020000C004002
:103F600008B5044B1B680BB9FFF7E8FF024B586A12
:103F700008BD00BF80110020000C00400A4B0B4A16
:103F80001360DA6822F00202DA6058635A6A801A13
:103F90000028DEBF5A6942F002025A61DA6842F034
:103FA0000202DA60704700BF000C0040B814002025
:103FB000034B044A1360DA6822F00202DA607047A9
:103FC000000C0040B8140020034A044B13606FF04B
:103FD00002021A61704700BFB8140020000C0040B4
:103FE00038B504460D4603685AB18268136020460E
:103FF0000121FDF703FB29462046BDE83840FDF7C7
:10400000F9BAC2681B04F1E770B50E4604461546BE
:10401000FDF7D0FA013606D02A4620460021BDE839
:104020007040FFF7DDBF70BD0022FFF7EDBF00005D
:1040300010B5044601300DD110BD9C4209D1204677
:104040008968FDF781FE20460021BDE81040FDF79C
:1040500013BF0C31B1F900305A1CEED10248BDE853
:10406000104000F0A5B800BF43F60008884208B52C
:1040700008D0431C06D0013106D0044800F098F85F
:104080004FF0FF31084608BD0146FBE712F6000875
:10409000B1F900305A1C01D118467047834201D152
:1040A000486870470C31F3E7421C10B5044607D04E
:1040B000FFF7EEFF431C044602D1024800F078F8F7
:1040C000204610BD23F60008014800F03DB800BFAF
:1040D00054F600080368D0B544685B68D4E9026709
:1040E00098470022B04242EA00023B4602D2003228
:1040F00047F10103C4E90223D0BD2DE97043064610
:10410000FFF7E8FF73685A68DAB1D3E90245D2E9EC
:104110000001A94208BFA04211D3B0EB040861EB33
:104120000509B9F1000F08BFB8F1E04F09D2001B33
:104130009A68336810441B69BDE870431847002033
:10414000F6E74FF0E040F3E7036870B5DB6804463C
:10415000984763685B68A3B12046FFF7BBFF6568BB
:104160006E68D5E90201D6E90023994208BF904262
:1041700007D3F3686B602B68002BEAD0B0689847D0
:10418000E7E72046BDE87040FFF7B7BF70B50446CB
:104190000D46164600F028F833462A4621460348C5
:1041A000FDF726FBBDE87040FDF7E2BA70F60008A7
:1041B0000FB413B5084B1A784AB9012405A904981D
:1041C0001C700191FDF7EAFA2046FDF747FC02B0AA
:1041D000BDE8104004B07047A0110020EFF310803C
:1041E000C04300F00100704738B5FFF7F7FF054600
:1041F00072B60E4C236823B980F001030C4ADBB27F
:1042000013702368013304D145220A490A48FFF795
:10421000BDFF23682BB125B1492206490748FFF7A6
:10422000B5FF23680133236038BD00BFA41100200F
:10423000A1110020A1F60008F3F6000819F7000804
:1042400010B50A4C236883B1FFF7C8FF20B15A228A
:1042500007490848FFF79AFF2368013B236023685A
:104260001BB9054B1B7803B962B610BDA411002021
:10427000A1F6000819F70008A111002038B504467E
:10428000FFF76EFE0546FFF76BFE401BA042FAD318
:1042900038BD000007EE100ADFED047A67EE277ADA
:1042A000FDEEE77A17EE900AFFF7E8BF00247449A5
:1042B0004FF47A735843FFF7E1BF10B50023036052
:1042C00043600A782F2A04460DD14A785AB1481C17
:1042D0002060194623681A782F2A06D101332360FB
:1042E00000F040F96060204610BD002AF8D001338C
:1042F00001312360EEE700687047406808B520B1DF
:1043000000F0DFF8431E5842584108BD10B504467E
:10431000FFF7F3FF10B1606800B1043810BD4068CA
:1043200008B520B100F0CDF8B0FA80F0400908BD22
:1043300010B50446FFF7F3FF10B1606800B1043810
:1043400010BD4068003018BF012070470020704742
:1043500000207047036801221B6900211847036889
:1043600000221B6911461847F8B50368DB6C0E463E
:1043700004468F1898473546BD4207D0236815F884
:10438000011B5B6C204698470130F5D1236820461D
:104390001B6D9847A81BF8BDF8B50368DB6C0E468B
:1043A00004468F1898473546BD4208D023682046FA
:1043B0009B6C9847431C02D005F8010BF4E7236877
:1043C00020461B6D9847A81BF8BD0020704770471A
:1043D000002070470020704710B5054B03604C3338
:1043E000044640F8043F00F08DF8204610BD00BFA1
:1043F00038F70008A0F10400EEE700BF10B504464E
:10440000FFF7EAFF2046FDF799FB204610BDA0F11B
:104410000400F3E70F4B10B50022044640F8043BBC
:1044200000F052F80C4B23605C336360002363613F
:104430000A49204600F0CFF8606118B1FDF713FB80
:10444000204610BD00F0CAF801680548FFF7B0FE2D
:10445000F6E700BF34F80008B8F700088CF700084A
:104460008FF7000810B5074B03F1080264330446C8
:1044700002604360406900F0F9F82046FFF7ACFFA6
:10448000204610BDB0F700080EB477B5036807AD3D
:10449000044655F8046BDB6C98476069019500F0A1
:1044A000ADF9019A6069314605F02AF8236805469E
:1044B0001B6D20469847284603B0BDE8704003B006
:1044C0007047007B7047000038B504460A4B036014
:1044D000002343600D46A16002730848FDF730FBDE
:1044E00045B1074B1A6862601C600448FDF728FB61
:1044F000204638BD6560F8E724F80008AC110020BC
:10450000A811002010B50F4B036004460E48FDF7BC
:1045100017FBA3682BB10D4A13689C420CD163684A
:1045200013600948FDF70CFB237B13B9201FFDF72F
:104530001DFB204610BD13465A689442FBD16268A9
:104540005A60EEE724F80008AC110020A811002002
:1045500010B50446FFF7D6FF2046FDF7EFFA2046D8
:1045600010BD000070B506460C480D46FDF7E8FA90
:104570000B4B1C685CB1A06870B12A46314601F053
:10458000CDFB48B9A06801F09BFB854204D10348EC
:10459000FDF7D6FA204670BD6468EBE7AC11002049
:1045A000A8110020036870B51B6901220021044690
:1045B0009847051E0DDB236802221B690021204657
:1045C00098472368064629461B69002220469847DB
:1045D0003546284670BDFDF749BA0000014B186802
:1045E000704700BFB006002000293DD070B50546D9
:1045F0000C4608B1836B7BB3B4F90C300BB90020C7
:1046000070BD2846214600F039F8E36A064633B10A
:104610002846E16998470028B8BF4FF0FF36A389C4
:104620001B061CD4216B41B104F14003994202D016
:10463000284609F093FE00232363616C21B12846CC
:1046400009F08CFE0023636400F0CAF90023A38103
:1046500000F0C8F9304670BD00F0BCF9CCE7284640
:10466000216909F07BFEDDE700207047024B01461F
:104670001868FFF7B9BF00BFB00600208B899AB257
:104680002DE9F0410D46110780463CD46A6843F499
:104690000063002AAB8165DDAE6A002E4BD09BB271
:1046A00003F48052002192B2D8F80040C8F80010FC
:1046B000002A5BD02A6D5F0705D569682B6B521AFB
:1046C0000BB1EB6BD21A4046E9690023B047461C98
:1046D00056D0AB892A692A6023F400639BB200227A
:1046E0006A60DA04AB813BD4296BC8F8004011B38F
:1046F00005F14003994202D0404609F02FFE002008
:104700002863BDE8F0812E69AEB12C682E60910758
:104710000CBF6B690023A41BAB600AE03246234642
:104720006F6AE9694046B8470028A4EB00040644D4
:1047300004DD002CF2DC0020BDE8F081AB8943F001
:104740004003AB814FF0FF30BDE8F081AB892A69AF
:10475000696023F400639BB2AB81DB042A60C3D59C
:104760002865C1E7EA6B002A96DCE4E701234046AE
:10477000E969B047431C024619D0AB89AE6A9AE793
:10478000D8F800100029E1D01D2907D0162905D03E
:10479000AB8943F04003AB81BDE8F081AB892A6966
:1047A0002A6023F400630022AB816A609CE7D8F89A
:1047B0000030002BE1D01D2B07D0162B05D0AB8984
:1047C00043F04003AB81BDE8F081C8F80040B2E798
:1047D00010B5044682B008B1836B53B1B1F90C0037
:1047E00008B902B010BD204602B0BDE81040FFF786
:1047F00045BF019100F0EEF80199EFE720B1054BBC
:1048000001461868FFF7E4BF034B0449186800F03D
:1048100071BC00BFB00600207CF80008D14700083A
:10482000014900F067BC00BFE94500082DE9F04FE1
:10483000354B4568C3630024074600F53B720423EB
:104840000321C0F8E412C0F8E822C0F8E04283B0C7
:104850002C606C60AC606C66EC812C616C61AC614E
:10486000AB81214605F15C00082200F08FFEBE6896
:10487000DFF898B0DFF898A0DFF89890DFF898801C
:10488000C5F820B001230922C5F824A0C5F8289056
:10489000C5F82C80ED612146F381B28106F15C0000
:1048A00034607460B460746634617461B461082209
:1048B000019300F06BFEFD68F66112200222C6F83B
:1048C00020B0C6F824A0C6F82890C6F82C8021464F
:1048D000A881EA812C606C60AC606C662C616C61B4
:1048E000AC6105F15C00082200F050FE019BED6117
:1048F000C5F820B0C5F824A0C5F82890C5F82C80CC
:10490000BB6303B0BDE8F08F214800084959000897
:1049100071590008A9590008C959000870B56823E1
:104920004D1E03FB05F50E4605F1740109F012FD5D
:10493000044640B100210C30666005F16802216038
:10494000A06000F023FE204670BD00BF204B70B574
:104950001D68AB6B064613B92846FFF767FF05F5E0
:1049600038756B68AC68013B05D521E0013B5A1CEA
:1049700004F168041CD0B4F90C20002AF6D10025FB
:1049800001234FF6FF72E281A38165662560A56071
:10499000656025616561A561294604F15C00082216
:1049A00000F0F4FD256365636564A564204670BD71
:1049B0002B680BB11D46D4E730460421FFF7AEFF4C
:1049C000286008B10546CCE70C23336070BD00BFFA
:1049D0007CF80008836B03B17047FFF727BF00BF67
:1049E000704700BF704700BF38B5084B084DED1A3F
:1049F000AC1018BFED1805D0013C55F8043D9847A0
:104A0000002CF9D1BDE838400AF0A2BA340B0020DE
:104A1000380B0020F0B583B00F46114601AA0646B8
:104A200005F0BAFE0546E8B13046FFF78FFF0446B1
:104A3000C0B139463046019A4FF4DB7300F0F4FD03
:104A400000281BDB114B124F1249134AE362EB059E
:104A5000E081A581E46127626162A26205D42046FB
:104A600003B0F0BD002003B0F0BD30462146002267
:104A7000022300F01BF8204603B0F0BD0025FFF72D
:104A8000AFFFA581FFF7AEFF2846E9E7C959000847
:104A90004959000871590008A9590008024B0A46F3
:104AA00001461868FFF7B6BFB006002000F000B856
:104AB0002DE9F04F0C4691B091461E46054610B1C7
:104AC000836B002B73D0A38903F48473B3F5847FC5
:104AD00075D0D4F82880B8F1000F00F03E81012E87
:104AE0004AD0022E08D03EB116232B604FF0FF377C
:104AF000384611B0BDE8F08F4FF0000A23695746E1
:104B0000002B00F01581A28940F61A0391B20B40E8
:104B100043B949055ED4934B984500F0F68042F4C2
:104B20000062A28128462146FFF752FE0746002870
:104B3000DCD14A4633462846E169C0470130D5D02A
:104B4000216B41B104F14003994202D0284609F09B
:104B500005FC00232363A3892269226023F40263F6
:104B60000021A381616004F15C00082200F00EFDC9
:104B7000384611B0BDE8F08F28462146FFF728FEE1
:104B8000A38903F4805292B2002A00F0B480276D0A
:104B90005E075CD4180740F1AC80226823690AB133
:104BA000D21A1744B9444FF0010A0026A8E7FFF7CC
:104BB00011FFA38903F48473B3F5847F89D1284658
:104BC0002146FFF705FE84E7A3894FF48062134373
:104BD000A381E264002E43D1CB46BAF1000F4ED13F
:104BE000A389DA0440F1A980206D6368216BC71A9C
:104BF000002900F0AB80E26BBF1A1F442069A36B51
:104C00001B1AFF1A1344BB453FDBFA1893453CD2ED
:104C1000C7EB0B073844DB1B84E8090041B104F102
:104C20004003994202D0284609F098FB00232363F1
:104C3000A38923F02003A38104F15C000021082252
:104C400000F0A4FC0027384611B0BDE8F08F626880
:104C5000236BBF1A002B4CD0E26B2369BF1AA1E76C
:104C60002846B4F90E1001AA00F07EF800287FF45F
:104C700059AF059B09EB030BBAF1000FB0D0216BC4
:104C80006368002962D0E26BB7E7E76CE1697F42B5
:104C90000BEA07073A4628460023C04701303FF495
:104CA00041AF2369216B23600023636041B104F1AC
:104CB0004003994202D0284609F050FB00232363A9
:104CC000A389BBEB070B23F02003A381B4D02846B4
:104CD000214600F0DBFC00287FF424AF6268934596
:104CE0003FF620AF2368CBEB02025B446260236097
:104CF000A2E7236956E733462846E169C047431CCB
:104D000007463FF4F3AEA38942E7B4F90E10002939
:104D1000FFF605AF284601AA00F026F830B9029B3D
:104D200003F47043B3F5004F3FF44EAFA289F6E6AB
:104D30002846214600F030FAE5E60123524628468F
:104D4000E169C047431C7FF450AFEBE6226820695D
:104D5000121ABF1A1344002155E71D232B604FF090
:104D6000FF37C5E6A959000838B5084C00230546A9
:104D7000084611462360FCF727FE431C00D038BDCF
:104D80002368002BFBD02B6038BD00BFF41400203B
:104D90009368002B7AD02DE9F04FB1F80CE01EF0AB
:104DA000080F83B00C468146164626D00B6923B304
:104DB0000EF002081FFA88F0356870B34FF0000A51
:104DC000DFF8E0B2D046D8454346524628BF5B469E
:104DD0004846B8F1000F53D0E169676AB847002828
:104DE00073DDB3681B1A8244C0EB0808B360002B64
:104DF000E9D1002003B0BDE8F08F4846214604F019
:104E000079FC002840F04581B4F80CE035680EF0DC
:104E100002081FFA88F00028D0D11EF0010B5DD1E6
:104E2000D846B8F1000F25D01EF4007FA7682FD018
:104E3000B845BA46C0F0A9801EF4906F40F0B68025
:104E400020685246594600F03DFBA0682268C01B0E
:104E500002EB0A03A06023604046B3681B1A834438
:104E6000C0EB0808B360002BC3D0B4F80CE0B8F175
:104E7000000FD9D1D5F800B0D5F804800835D0E7B7
:104E8000D5F800A0D5F8048008359CE700207047CD
:104E900020682369984203D86269904580F0B98000
:104EA000474528BF47463A46594600F00BFBA368E2
:104EB0002268DB1B3A44A3602260002B4AD148469B
:104EC0002146FFF785FC002844D0A38943F0400326
:104ED0004FF0FF30A38103B0BDE8F08F8046009013
:104EE00083468246BAF1000F2CD0009B002B50D095
:104EF00020682169D4F808E06269D045434628BF9C
:104F0000534688421F4604D90EEB020C634500F35A
:104F10009280934220DB1346676AE16948465A460D
:104F2000B847071ED1DDB8EB070825D0B368DB1BF7
:104F3000BB44C7EB0A0AB360002B3FF45AAFBAF187
:104F4000000FD2D10023D5F800B0D5F804A000930B
:104F50000835C7E7384680E71A465946019300F0FE
:104F6000B1FAA2682168019BB8EB0708A2EB030223
:104F70000B44A2602360D9D148462146FFF728FCA4
:104F80000028A2D1CDF80080D0E720684746C2466D
:104F900057E758460A21524600F07EF9002873D0A0
:104FA00001300123CBEB00080093A1E76769216979
:104FB000236807EB47075B1A07EBD777581C7F106E
:104FC000404487423A463CBF07463A461EF4806F4B
:104FD000009346D01146484609F0BCF9009B824632
:104FE000002859D01A462169009300F0D1F9A2890E
:104FF000009B22F4906242F08002A2810AEB03003F
:10500000FB1AC4F810A067612060A3604746C2463F
:1050100017E76FF00043434528BF4346676A93FB99
:10502000F2F3484603FB02F3E1695A46B847002809
:105030003FF713AF49E762465946CDF804C000F088
:1050400041FA2368DDF804C06344236048462146E2
:10505000FFF7BEFBDDF804C000287FF436AF6746DB
:1050600061E7484609F078F9009B82460028C5D1DF
:105070004846216909F072F9A3890C2223F08003C4
:105080009BB2C9F8002021E701230AF1010800932F
:105090002EE74FF0FF30ADE60C23C9F80030A389AE
:1050A00014E700BF00FCFF7F2DE9F04110F53877D1
:1050B0001BD0884600267D68BC68013D0FD4A389BB
:1050C000012B05F1FF3506D9B4F90E300133204626
:1050D00001D0C04706436B1C04F16804EFD13F6860
:1050E000002FE8D13046BDE8F0813E463046BDE8AD
:1050F000F08100BF2DE9F84310F538771FD08846BE
:1051000006464FF000097D68BC68013D11D4A389B3
:10511000012B05F1FF3508D9B4F90E3001332146D2
:10512000304602D0C04749EA00096B1C04F168040C
:10513000EDD13F68002FE6D14846BDE8F883B94677
:105140004846BDE8F88300BF70B50F4E0F4D761B83
:10515000B61018BF002405D0013455F8043B984719
:10516000A642F9D10A4E0B4D761B09F0EBFEB610A4
:1051700018BF002406D0013455F8043B9847A642D6
:10518000F9D170BD70BD00BF2C0B00202C0B00208E
:10519000340B00202C0B00208B899AB212F0020FE6
:1051A0003CD1F0B50C46B1F90E10002991B005467E
:1051B00019DB01AAFFF7D8FD002812DB029B03F4DC
:1051C0007043B3F5004FA3F50057B7FA87F74FEADE
:1051D00057172AD0A38943F40063A3814FF4806654
:1051E0000BE0A3899AB212F0800F43F40063A3810D
:1051F0000CBF4FF48066402600272846314609F050
:10520000A9F8A38940B31A4AEA6343F08003A38153
:105210002060206166619FB911B0F0BD01F14303C8
:1052200001220B600B614A617047124BA26A9A42DD
:10523000D0D1A3894FF480663343A381E664DCE7D1
:105240002846B4F90E1005F0E1FA0028E4D0A3894D
:1052500043F00103A381DFE79A05DDD404F14302A3
:1052600043F002030121A381226022616161D3E73F
:1052700021480008A9590008024B0146186809F0A6
:1052800069B800BFB0060020024B0146186809F05B
:1052900065B800BFB0060020830770B4C9B240D023
:1052A000541E002A3FD003788B4218BF431C06D1FE
:1052B0001DE0F4B102788A4204F1FF3417D013F0F4
:1052C000030F184603F10103F3D1032C14D884B162
:1052D00003788B420BD00519431C02E002788A4206
:1052E00005D0AB42184603F10103F7D1002070BC92
:1052F0007047204670BC704741EA0126024646EAE4
:1053000006461046043203687340A3F1013525EACE
:10531000030313F0803FDAD1043C032C1046F0D88D
:10532000D5E71446D1E71046E1E700BF032A70B481
:1053300026D940EA01039B0711D004780D78AC42CE
:1053400022D10244431C05E013F8014B11F8015F20
:10535000AC4219D19342F7D1002070BC70470C4683
:1053600003461E682568AE421846214603F1040331
:1053700004F1040404D1043A032A18462146F0D863
:10538000002ADAD11046E8E7601B70BC704700BF06
:10539000844641EA000313F003036DD1403A41D340
:1053A00051F8043B40F8043B51F8043B40F8043BFF
:1053B00051F8043B40F8043B51F8043B40F8043BEF
:1053C00051F8043B40F8043B51F8043B40F8043BDF
:1053D00051F8043B40F8043B51F8043B40F8043BCF
:1053E00051F8043B40F8043B51F8043B40F8043BBF
:1053F00051F8043B40F8043B51F8043B40F8043BAF
:1054000051F8043B40F8043B51F8043B40F8043B9E
:1054100051F8043B40F8043B51F8043B40F8043B8E
:10542000403ABDD2303211D351F8043B40F8043B2E
:1054300051F8043B40F8043B51F8043B40F8043B6E
:1054400051F8043B40F8043B103AEDD20C3205D33E
:1054500051F8043B40F8043B043AF9D2043208D036
:10546000D2071CBF11F8013B00F8013B01D30B88A8
:1054700003806046704700BF082A13D38B078DD086
:1054800010F003038AD0C3F10403D21ADB071CBF58
:1054900011F8013B00F8013B80D331F8023B20F8C2
:1054A000023B7BE7043AD9D3013A11F8013B00F8FB
:1054B000013BF9D20B7803704B7843708B78837083
:1054C000604670478842F0B50DD98B1898420AD2D1
:1054D0008118002A54D09A1A13F8014D01F8014D91
:1054E0009342F9D1F0BD0F2A48D940EA01039B0746
:1054F00047D100F1100401F11003154653F8106C68
:1055000044F8106C53F80C6C44F80C6C53F8086CAD
:1055100044F8086C103D53F8046C44F8046C0F2DEB
:1055200003F1100304F11004E8D8A2F1100323F0F2
:105530000F0302F00F0E1033BEF1030F19440344A2
:1055400021D91E1F0D467446043C55F8047B46F8CD
:10555000047F032CF8D8AEF1040424F003040434CF
:105560002344214402F0030252B1013B0A4411F8E2
:10557000014B03F8014F9142F9D1F0BD0346F3E727
:10558000F0BD0346F1E77246EEE700BF70B4840752
:1055900046D0541E002A41D0CDB2034602E0621E1E
:1055A000E4B3144603F8015B9A07F8D1032C2ED913
:1055B000CDB245EA05250F2C45EA054519D903F179
:1055C00010022646103E0F2E42F8105C42F80C5C8A
:1055D00042F8085C42F8045C02F11002F2D8A4F12F
:1055E000100222F00F0204F00F041032032C1344B7
:1055F0000DD91E462246043A032A46F8045BFAD81F
:10560000221F22F003020432134404F003042CB1DD
:10561000C9B21C4403F8011BA342FBD170BC704704
:1056200014460346C2E700BF70B5084C0646002585
:10563000084611461A462560FCF7B2FA431C00D012
:1056400070BD2368002BFBD0336070BDF4140020C4
:105650000FB400B5074983B004AB086853F8042BB6
:105660008168019302F038FD03B05DF804EB04B0EB
:10567000704700BFB0060020838903F00903092B9F
:1056800001D000207047FFF7B9B800BFF8B50C464D
:10569000054610B1836B002B43D0A3899AB29704BF
:1056A00007D4626E43F4005322F400526266A38171
:1056B0009AB200219606616030D4500721D5216B43
:1056C00061B104F14003994202D0284608F046FE39
:1056D000E36B636000202063002B3ED12369002B25
:1056E0004BD0A789BEB2B3071ED1226922602846DB
:1056F000E169256A6369A8470028606009DD002028
:10570000F8BDD1063ED512072AD443F00403A38185
:10571000E4E7A38919D143F02003A3814FF0FF30C0
:10572000F8BDFFF757F9B8E71A4B1B491868012372
:10573000A38106F00906FFF7B7FC092EA781D4D193
:1057400028462146FEF79AFFCFE7002243F04003A8
:10575000A38162604FF0FF30F8BDA36B2360F8BDFA
:1057600028462146FFF734F80028D7D1A389A06046
:1057700023F00803A0619BB2C7E728462146FFF744
:105780000BFDAEE743F0400309222A604FF0FF30E3
:10579000A381F8BD7CF800087956000800290CBFE9
:1057A000022200224FF4806300F000B82DE9F0419E
:1057B0003A4C26680D46044690461F4616B1B36B18
:1057C000002B3CD0B8F1020F2FD8002F2DDB214643
:1057D0003046FEF7FDFFA18900236360A3610B063D
:1057E00027D421F0830189B2B8F1020FA1812AD018
:1057F000002D36D0B8F1010F11D089B201F00800A8
:10580000274BF36380B225602561676178B111F0A1
:10581000030F18BF0027A7600020BDE8F08141F00A
:1058200001017B42A181A361E7E74FF0FF30BDE8B2
:10583000F0812169304608F091FDA189D1E7304619
:10584000FFF7C8F8BEE7002004F1430341F002016E
:1058500000250122A181A560236023616261BDE86A
:10586000F081002F08BF4FF480673846FFF704FD32
:10587000054628B1A18941F0800189B2A181B9E72B
:105880004FF48060FFF7F8FC054618B9A1894FF086
:10589000FF30D9E74FF48067ECE700BFB006002087
:1058A000214800080EB4F0B59CB021AB0F4953F865
:1058B000042B019305466FF00044086802954FF4ED
:1058C00002774FF6FF7602A90695ADF8147004949E
:1058D0000794ADF8166000F06FFA029B00221A7070
:1058E0001CB0BDE8F04003B0704700BFB006002018
:1058F0000EB4F0B59CB021AC4FF4017254F8046BB7
:10590000ADF814200290069000F0DAF90C4B0194E7
:10591000054632460B4F1868039523464FF6FF762F
:10592000002402A907950A970E941394ADF8166007
:1059300001F0AAFC1CB0BDE8F04003B0704700BF06
:10594000B00600206D59000810B50C46B1F90E10D4
:1059500005F024FC002803DB236D0344236510BD00
:10596000A38923F48053A38110BD00BF002070479A
:105970002DE9F04116468A891D46D3050C46074697
:1059800006D50022B1F90E10022304F06DFFA289A2
:10599000B4F90E1022F48052A281384632462B46CA
:1059A000BDE8F04103F092BE10B50C46B1F90E10FF
:1059B00004F05AFFA389421C0EBF23F4805343F422
:1059C00080532065A38110BDB1F90E1003F0F4BE21
:1059D00000000000000000000000000000000000C7
:1059E000A2EB0300704700BF02780B78012A28BFA2
:1059F0009A42F5D16DE9044540EA0104CDE9026718
:105A00006FF0000C4FEA447212B380EA010414F004
:105A1000070F6AD100F0070420F0070004F0030527
:105A200021F007014FEAC505F0E8042314F0040F44
:105A3000F1E804670CFA05F462EA040266EA040677
:105A40000AD063EA0403624667EA0407664603E095
:105A5000F0E80423F1E8046782FA4CF582EA0604D0
:105A6000A4FA8CF46CBB83FA4CF583EA0705A5FA1B
:105A70008CF595B950E9022351E9026782FA4CF599
:105A800082EA0604A4FA8CF483FA4CF583EA07054B
:105A9000A5FA8CF52543DBD09CB92DBAB5FA85F46F
:105AA00024F0070427FA04F1DDE9026723FA04F37E
:105AB00003F0FF0001F0FF01FDE80445A0EB010049
:105AC000704724BAB4FA84F424F0070426FA04F1E7
:105AD000DDE9026722FA04F202F0FF0001F0FF01A3
