:020000040800F2
:10000000000002202135000855350008553500084C
:10001000553500085535000855350008000000002A
:10002000000000000000000000000000553500083E
:10003000553500080000000055350008553500080A
:100040005535000855350008553500085535000868
:100050005535000855350008553500085535000858
:100060005535000855350008553500085535000848
:100070005535000855350008553500085535000838
:1000800055350008553500085535000800000000BA
:1000900000000000000000000000000055350008CE
:1000A0005535000855350008553500085535000808
:1000B00055350008553500085535000855350008F8
:1000C00055350008553500085535000855350008E8
:1000D000553500085535000855350008000000006A
:1000E000553500085535000855350008000000005A
:1000F000000000000000000000000000553500086E
:100100000000000055350008553500085535000839
:1001100000000000000000000000000000000000DF
:100120005535000855350008553500085535000887
:10013000553500080000000000000000000000002D
:10014000000000000000000000000000553500081D
:100150005535000855350008553500085535000857
:10016000553500085535000800000000000000006B
:10017000000000000000000000000000000000007F
:1001800000000000553500080000000000000000DD
:100190005535000855350008044B05481B1A062B39
:1001A00002D9044B03B11847704700BF4F0B002022
:1001B0004C0B00200000000005490648091A891070
:1001C00001EBD171491002D0034B03B118477047BE
:1001D0004C0B00204C0B00200000000010B5064C1A
:1001E000237843B9FFF7D8FF044B13B10448AFF3AA
:1001F00000800123237010BD500B00200000000080
:10020000B8CB000808B5084B1BB108480849AFF344
:1002100000800848036813B9BDE80840CCE7064BE6
:10022000002BF9D09847F7E700000000B8CB000892
:10023000540B0020480B002000000000134B002B43
:1002400008BF114B9D46A3F5803A00218B460F460F
:100250001148124A121A05F08FFF0D4B002B00D0E7
:1002600098470C4B002B00D0984700200021040039
:100270000D000B4802F0BFFE05F08EFD20002900A6
:1002800002F02AFF02F0B4FE000008000000022085
:1002900000000000C9300008500B00204415002069
:1002A000D959000882B001900023184602B0704767
:1002B00082B001900023184602B0704782B00190CE
:1002C0000023184602B0704782B001900023184600
:1002D00002B0704782B0019002B0704782B00190C6
:1002E0000023184602B0704782B00190009102B01E
:1002F000704700BF82B001900023184602B07047DB
:1003000082B001900023184602B0704782B001907D
:100310000023184602B0704784B003900291019206
:1003200004B0704782B001900B468DF80330002373
:10033000184602B0704700BF82B001900B46ADF87E
:10034000023013468DF801300023184602B0704782
:1003500082B001900023184602B0704710B584B0F7
:10036000019000238DF80F30019BB3F810341B125D
:10037000013B042B00F26B8101A252F823F000BF75
:100380009503000811040008B70400084F06000890
:100390004F060008019B1B6848331B68019898476B
:1003A0000346002B14BF01230023DBB2002B2ED009
:1003B000019B1B6848331B680198984703461B78CC
:1003C000122B0CD1019B1B6848331B68019898477E
:1003D000034601331B78012B01D1012300E00023E8
:1003E000002B14D0019B1222C3F81C24019B1B6814
:1003F00048331B68019898470246019BC3F81824AC
:10040000019B012283F8202401238DF80F3021E184
:10041000019B1B684C331B68019898470346002BCF
:1004200014BF01230023DBB2002B43D0019B1B68C8
:100430004C331B680198984703461B78092B0CD155
:10044000019B1B684C331B68019898470346013396
:100450001B78022B01D1012300E00023002B29D0BF
:10046000019B1B684C331B68019898470346023375
:100470001B781C46019B1B684C331B6801989847EE
:10048000034603331B781B0223431A46019BC3F820
:100490001C24019B1B684C331B680198984702463B
:1004A000019BC3F81824019B012283F82024012317
:1004B0008DF80F30CEE0019BB3F81034DBB2052B82
:1004C00000F2C78001A252F823F000BFE504000843
:1004D000210500085D05000899050008D5050008FC
:1004E00011060008019B1B6850331B680198984750
:1004F00003461B781A46019BC3F81C24019B1B680A
:1005000050331B68019898470246019BC3F8182492
:10051000019B012283F8202401238DF80F3095E000
:10052000019B1B6854331B680198984703461B784E
:100530001A46019BC3F81C24019B1B6854331B689B
:10054000019898470246019BC3F81824019B012299
:1005500083F8202401238DF80F3077E0019B1B687E
:1005600058331B680198984703461B781A46019B2D
:10057000C3F81C24019B1B6858331B6801989847DB
:100580000246019BC3F81824019B012283F8202412
:1005900001238DF80F3059E0019B1B685C331B6809
:1005A0000198984703461B781A46019BC3F81C2400
:1005B000019B1B685C331B68019898470246019BAE
:1005C000C3F81824019B012283F8202401238DF80D
:1005D0000F303BE0019B1B6860331B680198984714
:1005E00003461B781A46019BC3F81C24019B1B6819
:1005F00060331B68019898470246019BC3F8182492
:10060000019B012283F8202401238DF80F301DE087
:10061000019B1B6864331B680198984703461B784D
:100620001A46019BC3F81C24019B1B6864331B689A
:10063000019898470246019BC3F81824019B0122A8
:1006400083F8202401238DF80F3000BF01E000BFA4
:1006500000E000BF9DF80F30184604B010BD00BF89
:1006600084B0039002910192029B1B78DB09DAB2FD
:10067000019B1A70029B1B7803F060035B11DAB2D6
:10068000019B5A70029B1B7803F01F03DAB2019B97
:100690009A70029B5A78019BDA70029B02331B7896
:1006A0009AB2029B03331B781B029BB213439BB28B
:1006B0009AB2019B9A80029B04331B789AB2029BE8
:1006C00005331B781B029BB213439BB29AB2019B6A
:1006D000DA80029B06331B789AB2029B07331B78A1
:1006E0001B029BB213439BB29AB2019B1A8104B0C6
:1006F000704700BF00B595B00190019B93F820347E
:10070000002B01D0002341E0019A03AB10461946AB
:1007100001F05EFD1390019BD3F81C24139B9A42B9
:1007200001D2002332E0019BD3F81824139B1A4412
:10073000019BC3F81824019BD3F81C24139BD21AE5
:10074000019BC3F81C24019BD3F81C34002B18D147
:10075000019B93F82234002B0CD0019B1B683C3387
:100760001B6803AA01981146139A9847019B00221F
:1007700083F82224019B18460021002201F04EFD3F
:1007800003E0019B184601F0F5FC0123184615B063
:100790005DF804FB00B585B00190019BD3F81C34D3
:1007A000002B29D1019B93F82134002B09D0019B08
:1007B00018460021002201F031FD019B002283F840
:1007C0002124019B93F82234002B0BD0019B1B6842
:1007D0003C331B680198002100229847019B0022AE
:1007E00083F82224019B184601F0C4FC019B1846A3
:1007F00001F0BCFC012329E0019B93F82034012B7C
:1008000001D0002322E0019BD3F81C340393039B07
:10081000402B01D940230393019A019BD3F818344C
:1008200010461946039A01F0F9FC019BD3F81824ED
:10083000039B1A44019BC3F81824019BD3F81C2482
:10084000039BD21A019BC3F81C240123184605B050
:100850005DF804FB00B583B00190019A019BB3F8E9
:100860001034DBB21046194601F0D6FB019BB3F8F9
:100870001034002B04D1019B022283F8242403E0CE
:10088000019B032283F824240123184603B05DF85A
:1008900004FB00BF00B583B00190019BB3F8103496
:1008A000DAB2019B83F82524019B93F82534002BB1
:1008B00008D1019B184601F0ABFB019B032283F892
:1008C000242417E0019B1B6840331B68019A92F8AF
:1008D00025240198114698470346002B08D0019B18
:1008E000184601F091FB019B042283F8242401E0C7
:1008F000002300E00123184603B05DF804FB00BFAD
:1009000082B00190019B03F22542019BC3F8182499
:10091000019B0122C3F81C24019B012283F820249F
:100920000123184602B0704782B00190019B93F8F2
:100930002434DBB2042B14BF01230023DBB2002BD1
:1009400001D0002314E0019BB3F82824019BA3F8F5
:100950001224019B03F22A42019BC3F81824019B35
:100960000122C3F81C24019B012283F820240123C7
:10097000184602B0704700BF00B585B00190002353
:100980008DF80F30019B1B6844331B68019AB2F845
:100990001214019AB2F81024D2B201989847034673
:1009A000002B0FD001238DF80F30019BB3F81224D8
:1009B000019BA3F82824019BB3F81034DAB2019B01
:1009C00083F82A249DF80F30184605B05DF804FB23
:1009D00000B585B0019000238DF80F30019B93F88E
:1009E0002434DBB2042B14BF01230023DBB2002B21
:1009F00006D0019BB3F81234002B01D000232DE068
:100A0000019B93F80E34002B25D0022B00D023E05D
:100A1000019BB3F81034002B1CD10199019BB3F852
:100A20001234DBB203F00F03DBB25B00DAB2019BDE
:100A3000B3F8123403F08003002B01D0012300E04F
:100A400000231344DBB20846194601F0F1FC0123F0
:100A50008DF80F3000E000BF9DF80F30184605B04C
:100A60005DF804FB00B585B0019000238DF80F30D0
:100A7000019B93F82434DBB2042B14BF0123002321
:100A8000DBB2002B06D0019BB3F81234002B01D04F
:100A900000232DE0019B93F80E34002B25D0022B70
:100AA00000D023E0019BB3F81034002B1CD1019936
:100AB000019BB3F81234DBB203F00F03DBB25B002F
:100AC000DAB2019BB3F8123403F08003002B01D09B
:100AD000012300E000231344DBB20846194601F06D
:100AE000DDFC01238DF80F3000E000BF9DF80F30D2
:100AF000184605B05DF804FB00B585B001900023F1
:100B00008DF80F30019B93F82434DBB2042B14BF13
:100B100001230023DBB2002B06D0019BB3F8123473
:100B2000002B01D0002351E0019B93F80E34012BE0
:100B30000BD0022B10D0002B00D035E0254B01222A
:100B40001A8001238DF80F302EE0224B00221A80EC
:100B500001238DF80F3027E00199019BB3F812347F
:100B6000DBB203F00F03DBB25B00DAB2019BB3F838
:100B7000123403F08003002B01D0012300E0002396
:100B80001344DBB20846194601F0B4FC0346002BBF
:100B900003D0104B01221A8002E00E4B00221A8073
:100BA00001238DF80F3000BF9DF80F30002B0BD0C4
:100BB000019B084AC3F81824019B0222C3F81C2495
:100BC000019B012283F820249DF80F30184605B0C0
:100BD0005DF804FB700B002000B585B00190002388
:100BE0008DF80F30019B93F80D34002B64D1019BDD
:100BF00093F80F340B2B5ED801A252F823F000BFFC
:100C0000310C00083F0C0008B70C00084D0C000820
:100C1000B70C00085B0C0008690C0008770C000892
:100C20007F0C00088D0C00089B0C0008A90C000824
:100C30000198FFF761FF03468DF80F303CE0019803
:100C4000FFF710FF03468DF80F3035E00198FFF7EE
:100C5000BFFE03468DF80F302EE00198FFF7FAFD36
:100C600003468DF80F3027E00198FFF777FB034626
:100C70008DF80F3020E000238DF80F301CE0019834
:100C8000FFF73EFE03468DF80F3015E00198FFF7A1
:100C900001FE03468DF80F300EE00198FFF744FE89
:100CA00003468DF80F3007E00198FFF765FE034615
:100CB0008DF80F3000E000BF9DF80F30184605B0EA
:100CC0005DF804FB00B595B0019000238DF84F301E
:100CD000019A03AB1046194601F030FA019B03F26A
:100CE0000C4303AA019811461A46FFF7B9FC019B71
:100CF0000022C3F81824019B0022C3F81C24019B86
:100D0000002283F82024019B002283F82124019BE8
:100D1000002283F82224019B1B6838331B6801984A
:100D2000984703468DF84F309DF84F3083F001030C
:100D3000DBB2002B0AD00198FFF74EFF034683F089
:100D40000103DBB2002B01D0002366E0019BB3F866
:100D50001434002B2CD0019B93F80C34012B16D1AA
:100D6000019B93F82034012B01D0002355E0019B17
:100D7000D3F81C34019AB2F8142493421FD9019B72
:100D8000B3F814341A46019BC3F81C2417E0019BE6
:100D900093F82034002B01D000233EE0019BD3F8D0
:100DA0001C34019AB2F81424934208D0002334E092
:100DB000019BD3F81C34002B01D000232DE0019BB4
:100DC000B3F81434002B21D0019B93F80C34012B81
:100DD00017D1019BB3F814341A46019BD3F81C3485
:100DE0009A420AD9019BD3F81C3403F03F03002B2D
:100DF00003D1019B012283F821240198FFF7CAFC4B
:100E00000AE0019B184601F0B5F905E0019B184680
:100E10000021002201F002FA0123184615B05DF806
:100E200004FB00BF00B583B00190019B022283F850
:100E30002424019B002283F82524019B002283F8AF
:100E40002624019B1B6834331B680198984703B024
:100E50005DF804FB00B583B001900198FFF732FF05
:100E6000034683F00103DBB2002B03D0019B18463D
:100E700001F0F0F903B05DF804FB00BF00B583B0EA
:100E800001900198FFF736FC034683F00103DBB2C3
:100E9000002B03D0019B184601F0DCF903B05DF88C
:100EA00004FB00BF00B583B001900198FFF772FC0E
:100EB000034683F00103DBB2002B03D0019B1846ED
:100EC00001F0C8F903B05DF804FB00BF82B00190E7
:100ED000019B93F82434DBB2042B0CBF01230023C5
:100EE000DBB2184602B0704700B583B001900B46E4
:100EF0008DF80330019B184601F07CF89DF8033013
:100F0000002B09D000BF0198FFF7E0FF034683F0F4
:100F10000103DBB2002BF6D103B05DF804FB00BF88
:100F200000B585B003900B4601928DF80B30039A03
:100F30009DF80B3010461946019A002301F082F803
:100F40000346184605B05DF804FB00BF82B001906F
:100F5000009102B0704700BF82B00190009102B0D2
:100F6000704700BF00B585B00390084611461A4689
:100F70000346ADF80A300B46ADF808301346ADF81D
:100F80000630039B184600F007FC039B104A1A60CA
:100F9000039BBDF80A20A3F80424039BBDF8082096
:100FA000A3F80624039BBDF80620A3F80824039B9E
:100FB000012283F82424039B002283F82524039B29
:100FC000002283F82624039B184605B05DF804FB35
:100FD000E0C2000800B585B003900B4601928DF881
:100FE0000B30039A9DF80B3010461946019A01F018
:100FF0003BF90346012B0CBF01230023DBB218464B
:1010000005B05DF804FB00BF00B587B00390019206
:1010100000930B468DF80B30009A089B9A4201D939
:1010200000233CE00398FFF751FF034683F00103E0
:10103000DBB2002B01D0002331E0039A9DF80B3086
:1010400010461946019A009B01F098F903468DF865
:1010500017309DF81730012B01D000231FE0039AB1
:101060009DF80B301046194601F0CAF903468DF879
:1010700017309DF81730012B07D10398FFF726FF93
:101080000346002B01D0012300E00023002BE6D112
:101090009DF81730002B0CBF01230023DBB218464C
:1010A00007B05DF804FB00BF00B587B00390019264
:1010B00000930B468DF80B300398FFF707FF0346AC
:1010C00083F00103DBB2002B01D0002321E0039A5F
:1010D0009DF80B3010461946019A009B01F002F969
:1010E00003468DF817309DF81730012B07D1039870
:1010F000FFF7ECFE0346002B01D0012300E00023A4
:10110000002BE4D19DF81730002B0CBF01230023E6
:10111000DBB2184607B05DF804FB00BF00B583B032
:101120000190214B1B6803F00103002B37D11E48AF
:1011300001F06EFF0346002B14BF01230023DBB236
:10114000002B2CD0019BB3F80434DAB2174B1A727F
:10115000019BB3F804341B0A9BB2DAB2134B5A72E8
:10116000019BB3F80634DAB2104B9A72019BB3F8C4
:1011700006341B0A9BB2DAB20C4BDA72019BB3F84D
:101180000834DAB2094B1A73019BB3F808341B0A0E
:101190009BB2DAB2054B5A73034801F053FF034B7D
:1011A000184603B05DF804FB6C0B00209C01002086
:1011B00082B00190014B184602B07047B001002088
:1011C00082B00190014B184602B07047B401002074
:1011D00082B00190014B184602B07047C801002050
:1011E00082B00190014B184602B07047E001002028
:1011F00082B00190014B184602B07047E801002010
:1012000082B00190014B184602B07047F0010020F7
:1012100000B583B00190019B054A1A60019B1846F6
:1012200000F0CEFE019B184603B05DF804FB00BF42
:10123000E0C2000886B0039002910192019BDBB2EC
:101240000133DAB2039B83F80121039B00221A7059
:10125000002305930AE0059B0133059A02990A448D
:101260001178039AD154059B01330593059A019B8C
:101270009A42F0DB039B184606B0704700B585B074
:101280000390084611461A460346ADF80A300B464D
:10129000ADF808301346ADF806300398BDF80A10D3
:1012A000BDF80820BDF80630FFF75CFE039B0C4A32
:1012B0001A60039B002283F82C25039B012283F8EC
:1012C0002D25039B0022C3F83025039B18460121DE
:1012D000FFF70AFE039B184605B05DF804FB00BF4C
:1012E00058C3000884B000B587B0039009A880E80F
:1012F0000E000123059360E09DF825301B11DBB241
:101300008DF810309DF810300F2B22D19DF825312B
:101310001A46059BD31A032B03DD04238DF81030E6
:1013200017E09DF825311A46059BD31A022B08D0E9
:10133000032B0AD0012B00D00BE005238DF81030D1
:1013400007E006238DF8103003E007238DF81030F6
:1013500000BF09AA059B13441B788DF81130059B2B
:1013600001339DF82521934207DA059B013308AA32
:1013700013441B798DF8123002E000238DF81230EF
:10138000059B02339DF82521934207DA059B023322
:1013900008AA13441B798DF8133002E000238DF85E
:1013A0001330039904AA402300930846052104231F
:1013B000FFF72AFE059B033305939DF825311A4656
:1013C000059B9A4298DC07B05DF804EB04B07047C7
:1013D00082B001900091019B009AC3F8302502B0C1
:1013E000704700BF30B5ADF5157D3FAB18603FAB22
:1013F000196841AA51AC40230093084604212346B2
:10140000FFF752FE3FAB1B68D3F83035002B00F0DE
:10141000B18000239393A7E03FAB1B68012283F8C0
:101420002D2541AA939B13441B78023B0D2B40D8DA
:1014300001A252F823F000BF71140008B314000891
:10144000791400088B14000893140008B3140008E2
:10145000B3140008B3140008B3140008B314000850
:101460009B140008A3140008B3140008AB14000870
:1014700002238DF84B3220E03FAB1B68002283F83B
:101480002D2503238DF84B3217E001238DF84B32C5
:1014900013E002238DF84B320FE002238DF84B321C
:1014A0000BE002238DF84B3207E001238DF84B321D
:1014B00003E003238DF84B3200BF01238DF84A323D
:1014C0001EE03FAB1B6893F82C3519469DF84A2265
:1014D000939B134441AAD25C3FAB1B680B4483F837
:1014E0002B243FAB1B6893F82C350133DAB23FABAA
:1014F0001B6883F82C259DF84A3201338DF84A3257
:101500009DF84A229DF84B3201339A42D9DB3FAB1A
:101510001B6893F82D35002B23D03FAB1B68D3F805
:1015200030553FAB1B6803F22B423FAB1B6893F86F
:101530002C351C4652AB184611462246FFF77AFE60
:1015400052AC694604F11003F2220846194604F031
:1015500015FD94E80F00A8473FAB1B68002283F8F5
:101560002C25939B0433939351AB1B68939A9A4217
:10157000FFF452AF3FAB1B68184604214022FFF72F
:1015800029FD012318460DF5157D30BD00B583B04A
:1015900001900B468DF803309DF80330012B01D0EC
:1015A000002312E0019B184605214022FFF7B8FCFA
:1015B000019B184604214022FFF7B2FC019B18460C
:1015C00004214022FFF706FD0123184603B05DF811
:1015D00004FB00BF82B00190014B184602B0704777
:1015E0000802002082B00190014B184602B07047FB
:1015F0001402002082B00190014B184602B07047DF
:101600002C02002082B003468DF807309DF9073088
:10161000002B0CDB07499DF907305B099DF807207B
:1016200002F01F02012000FA02F241F8232002B06A
:10163000704700BF00E100E082B0034600918DF8E2
:1016400007309DF90730002B0ADB0C499DF9073064
:10165000009AD2B21201D2B20B4483F800230BE0FD
:1016600007499DF8073003F00F03043B009AD2B2FC
:101670001201D2B20B441A7602B0704700E100E0CA
:1016800000ED00E084B0034600918DF80730064B72
:101690009B6803939DF9073010339B00039A134412
:1016A000009A1A6004B0704700ED00E082B001902B
:1016B00002B0704782B0019002B0704782B00190D2
:1016C00002B0704782B0019002B0704782B00190C2
:1016D000009102B0704700BF82B00190009102B04B
:1016E000704700BF84B001900B468DF803309DF821
:1016F0000330002B05D1019B1B689B6A1B0C0393D5
:101700000AE0019B1A689DF80330013B40339B00BF
:1017100013445B681B0C0393039B9B00184604B0A7
:10172000704700BF00B589B00190019BD3F8FC332E
:101730000793079B1B680693019B1B680593059BFA
:1017400003F500639A68134B13401B0A0493079A2E
:1017500002AB0C3292E8030083E80300039B03F022
:101760000103002B01D1029B08E0039B5B101A468A
:10177000069B13441B68029A13441B68039A521079
:101780001146069A1144049A08461146984709B032
:101790005DF804FB00FF3F0000B5A5B00190019B80
:1017A000B74A1A604FF4317001F064FC2390019B3A
:1017B0004FF0A0425A60019B0833184600213422A2
:1017C00004F0DAFC019B04229A60019B40229A619A
:1017D000019B0222DA61019B01221A62019B022213
:1017E0001A61239B019A1A60002305930123069333
:1017F000239B043305AA92E8030083E80300A14A6F
:1018000007AB92E8030083E80300239B1C3307AA7D
:1018100092E8030083E803009B4A09AB92E80300C7
:1018200083E80300239B143309AA92E8030083E8AA
:101830000300964A0BAB92E8030083E80300239B66
:101840000C330BAA92E8030083E80300904A0DAB27
:1018500092E8030083E80300239B24330DAA92E857
:10186000030083E803008B4B0F9300231093239B0B
:1018700044330FAA92E8030083E80300864A11ABC1
:1018800092E8030083E80300239B2C3311AA92E81B
:10189000030083E80300814A13AB92E8030083E866
:1018A0000300239B343313AA92E8030083E8030068
:1018B0007B4B159300231693239B3C3315AA92E888
:1018C000030083E80300019B239AC3F80024754AB0
:1018D00017AB92E8030083E80300239B4C3317AA5D
:1018E00092E8030083E803006F4A19AB92E8030013
:1018F00083E80300239B543319AA92E8030083E88A
:1019000003006A4A1BAB92E8030083E80300239BB1
:101910005C331BAA92E8030083E80300644A1DAB12
:1019200092E8030083E80300239B64331DAA92E836
:10193000030083E803005F4A1FAB92E8030083E8DB
:101940000300239B6C331FAA92E8030083E8030083
:10195000594A21AB92E8030083E80300239B7433C8
:1019600021AA92E8030083E80300544A019B136014
:1019700000230493524A524B1B6B43F00103136341
:101980004F4B1B6B03F001030493049B082040F6AC
:10199000022101F0C5FB09204FF4206101F0C0FBDA
:1019A0000A2040F61A2101F0BBFB0B2040F6022171
:1019B00001F0B6FB0C2040F6022101F0B1FB404AD9
:1019C0003F4B5B6B43F080035363002303933C4A1C
:1019D0003B4B5B6C43F480435364394B5B6C03F4C7
:1019E00080430393039B00230293354A344B5B6C83
:1019F00043F480435364324B5B6C03F480430293A3
:101A0000029B019B002283F8CC23019B04331846E0
:101A100001F0DAFD019B04331846802102F08CFAB4
:101A2000019B043318460021112202F064FA019B45
:101A3000043318460121112202F05DFA019B0433A0
:101A400018460221102202F056FA019B0433184670
:101A50000321322202F04FFA1A4B43201946FFF7B6
:101A600011FE43200121FFF7E7FD019B04331846D7
:101A700001F02AFE019B184625B05DF804FB00BF6B
:101A8000A8C40008C4C30008CCC30008D4C300081D
:101A9000DCC3000845200008E4C30008ECC30008CC
:101AA00075210008F4C30008FCC3000804C4000842
:101AB0000CC4000814C400081CC40008740B0020E7
:101AC000003802400925000800B58BB001900B4694
:101AD0008DF80330019BD3F8FC330993099B1B68F5
:101AE00008939DF803305B008DF81F309DF81F3080
:101AF000099A1344012283F8BC229DF80330002B7D
:101B000024D09DF81F30023B099A0933DB001344AF
:101B100005AA043393E8030082E80300069B03F060
:101B20000103002B01D1059B08E0069B5B101A46C0
:101B3000089B13441B68059A13441B68069A5210AD
:101B40001146089A0A44104698471DE0099A03ABCB
:101B5000343292E8030083E80300049B03F001039E
:101B6000002B01D1039B08E0049B5B101A46089BE5
:101B700013441B68039A13441B68049A52101146BD
:101B8000089A0A44104698470BB05DF804FB00BF62
:101B900000B58BB001900B468DF80330019BD3F854
:101BA000FC330993099B1B6808939DF803305B0085
:101BB000DBB243F00103DBB28DF81F309DF81F301C
:101BC000099A1344012283F8BC229DF80330002BAC
:101BD00024D09DF81F30023B099A0933DB001344DF
:101BE00005AA043393E8030082E80300069B03F090
:101BF0000103002B01D1059B08E0069B5B101A46F0
:101C0000089B13441B68059A13441B68069A5210DC
:101C10001146089A0A44104698471DE0099A03ABFA
:101C20002C3292E8030083E80300049B03F00103D5
:101C3000002B01D1039B08E0049B5B101A46089B14
:101C400013441B68039A13441B68049A52101146EC
:101C5000089A0A44104698470BB05DF804FB00BF91
:101C600000B589B00190019BD3F8FC330793079B23
:101C70001B680693079A04AB243292E8030083E8BA
:101C80000300079A02AB3C3292E8030083E80300AA
:101C9000059B03F00103002B01D1049B08E0059B89
:101CA0005B101A46069B13441B68049A13441B6876
:101CB000059A52101146069A0A4410469847039B0B
:101CC00003F00103002B01D1029B08E0039B5B1092
:101CD0001A46069B13441B68029A13441B68039A16
:101CE00052101146069A0A441046984709B05DF80A
:101CF00004FB00BF00B587B00190019BD3F8FC3313
:101D00000593059B1B680493059A02AB1C3292E86D
:101D1000030083E80300039B03F00103002B01D1C0
:101D2000029B08E0039B5B101A46049B13441B684C
:101D3000029A13441B68039A52101146049A0A44EB
:101D400010460121984707B05DF804FB00B587B045
:101D50000190019BD3F8FC330593059B1B6804930A
:101D6000059A02AB1C3292E8030083E80300039B50
:101D700003F00103002B01D1029B08E0039B5B10E1
:101D80001A46049B13441B68029A13441B68039A67
:101D900052101146049A0A4410460021984707B091
:101DA0005DF804FB00B587B00190019BD3F8FC33CC
:101DB0000593059B1B680493059A02AB143292E8C5
:101DC000030083E80300039B03F00103002B01D110
:101DD000029B08E0039B5B101A46049B13441B689C
:101DE000029A13441B68039A52101146049A0A443B
:101DF00010460121984707B05DF804FB00B587B095
:101E00000190019BD3F8FC330593059B1B68049359
:101E1000059A02AB143292E8030083E80300039BA7
:101E200003F00103002B01D1029B08E0039B5B1030
:101E30001A46049B13441B68029A13441B68039AB6
:101E400052101146049A0A4410460021984707B0E0
:101E50005DF804FB10B58AB00190019BD3F8FC3308
:101E60000893089B1B6807930023099347E0099B8D
:101E70005B00089A1344002283F8BC22099B5B0094
:101E80005B08DBB20198194601F03DFF099B5B003E
:101E90005B08DBB20198194602F012F8099B5B005F
:101EA0000133089A1344002283F8BC22099B5B008B
:101EB00001335B08DAB2099BDBB25B00DBB20133B2
:101EC000DBB2DB01DBB21343DBB20198194601F050
:101ED0001AFF099B5B0001335B08DAB2099BDBB296
:101EE0005B00DBB20133DBB2DB01DBB21343DBB2FD
:101EF0000198194601F0E4FF099B01330993019B06
:101F00005A68099B9A42B2D8089A05AB043292E803
:101F1000030083E80300089A03AB443292E803000D
:101F200083E80300069B03F00103002B01D1059B0E
:101F300008E0069B5B101A46079B13441B68059A32
:101F400013441B68069A52101146079A0A44104619
:101F50009847049B03F00103002B01D1039C08E088
:101F6000049B5B101A46079B13441B68039A134497
:101F70001C68049B5B101A46079B134418460121FA
:101F800040220023A047049B03F00103002B01D152
:101F9000039C08E0049B5B101A46079B13441B68D4
:101FA000039A13441C68049B5B101A46079B134456
:101FB0001846002140220023A0470AB010BD00BFF0
:101FC00000B585B00190019B094A1A60019BD3F8C6
:101FD00000340393019B0433184601F08CFB0398F3
:101FE00001F058F8019B184605B05DF804FB00BFEE
:101FF000A8C4000800B583B001904320FFF702FB9E
:1020000003B05DF804FB00BF82B0019002B07047DE
:1020100082B0019002B0704700B583B001900B46CA
:102020008DF80330019B1A1D9DF8033010461946A8
:1020300001F028FE01980021002200F0EFF803B023
:102040005DF804FB00B589B00390019200930B4644
:102050008DF80B309DF80B305A109DF80B30DB01DA
:10206000DBB2134306939DF80B30072B1ED801A259
:1020700052F823F09520000895200008A7200008BA
:10208000A7200008A1200008A12000089B2000082C
:102090009B2000080023079308E00123079305E035
:1020A0000223079302E00323079300BF019BB3F5CC
:1020B000007F01D9002336E0069B03F08003002B4C
:1020C00014D0039B1A1D069BDBB203F07F03DBB227
:1020D00010461946FFF706FB0590059A019B9A42A8
:1020E00004D213481349C52203F03CFA039B181D80
:1020F000069BD9B2019B9AB2079BDBB201F0D4FDDB
:1021000003468DF813309DF81330022B04D10A4892
:102110000849C82203F026FA9DF81330002B0CBFA3
:1021200001230023DBB2184609B05DF804FB00BFB1
:1021300024C4000838C400086CC4000800B583B08B
:1021400001900091019B03F57473009819463022A9
:1021500003F014FF019B03F574731846002130222D
:1021600004F00AF803B05DF804FB00BF82B00190F0
:1021700002B0704700B587B00190019BD3F80034DE
:10218000059300230493059B03F51F730393059B9D
:10219000022283F8BC22019B1A1D049BDBB210466D
:1021A0001946039A402301F0D2FD03468DF80B3007
:1021B0009DF80B30022B04D103480449DC2203F0C4
:1021C000D1F907B05DF804FB6CC4000838C40008FE
:1021D00000B587B001900091019BD3F800340593BE
:1021E000019B04331846002101F0E2FD03460493ED
:1021F000059B002283F8BC22049B002B08D0059B82
:1022000003F51F73039300980399049A03F0B6FE35
:10221000049B184607B05DF804FB00BF00B585B00D
:10222000039002910192039B5A6C019B9A4204D243
:1022300006480749ED2203F095F903980121029A17
:10224000019B00F09BF805B05DF804FB7CC400081E
:1022500038C4000800B583B001900198012100F056
:10226000E7F803B05DF804FB00B589B003900B46B6
:1022700001928DF80B30039BD3F8003407939DF83F
:102280000B305A109DF80B30DB01DBB21343069381
:10229000079B7C3305939DF80B30079A1344022269
:1022A00083F8BC22039B1A1D069BDBB2104619461D
:1022B000059A019B01F04BFD03468DF813309DF804
:1022C0001330022B05D10548054940F2011203F0F5
:1022D00049F90123184609B05DF804FB6CC40008F5
:1022E00038C4000800B589B00390019200930B46F2
:1022F0008DF80B30039BD3F8003407939DF80B3017
:10230000079A134493F8BC32002B03D100230093A7
:1023100000232FE09DF80B30079A134493F8BC324A
:10232000012B01D0012325E09DF80B305A109DF8B8
:102330000B30DB01DBB213430693079B7C33059321
:10234000039B1A1D069BDBB21046194601F030FDB7
:102350000346049301980599049A03F00FFE009B2D
:10236000049A1A609DF80B30079A1344002283F8F0
:10237000BC220023184609B05DF804FB00B589B003
:102380000390019200930B468DF80B30039BD3F81A
:10239000003407939DF80B305A109DF80B30DB0189
:1023A000DBB2134306939DF80B30079A13440222C5
:1023B00083F8BC22039B1A1D069BDBB2104619460C
:1023C000019A009B01F0FCFC03468DF817309DF844
:1023D0001730022B05D10848084940F21D1203F0BE
:1023E000C1F89DF81730002B01D0022300E0012333
:1023F000184609B05DF804FB6CC4000838C4000836
:1024000084B001900B468DF80330019BD3F8003463
:1024100003939DF80330039A134493F8BC32012BC5
:1024200001D1002300E00123184604B0704700BF2B
:1024300000B585B001900B468DF80330019BD3F8B1
:10244000003403939DF80330039A1344002283F869
:10245000BC22019B1A1D9DF803305B10D9B29DF878
:102460000330DB01DBB20B43DBB2DBB210461946B3
:1024700001F0D3FC03468DF80B309DF80B30022B96
:1024800005D1044804494FF4987203F06BF805B085
:102490005DF804FB6CC4000838C4000800B585B0C2
:1024A00001900B468DF80330019B1A1D9DF80330F7
:1024B0005B10D9B29DF80330DB01DBB20B43DBB21A
:1024C000DBB21046194601F0D5FC03468DF80F30FB
:1024D0009DF80F30022B05D1044805494FF49B723B
:1024E00003F040F805B05DF804FB00BF6CC40008C1
:1024F00038C4000882B001900B468DF803300023E9
:10250000184602B0704700BF08B5034B1B68184659
:1025100000F004F808BD00BF740B002000B583B0C4
:102520000190044B1B680433184601F0F7F803B020
:102530005DF804FB740B002082B001900091009BB9
:10254000002B05D0019B9B68019A12681A6005E078
:10255000019BDB68019A126812041A6002B070478E
:1025600082B00190019B5B681A68019B1B68134055
:10257000002B01D0012300E00023184602B0704771
:1025800000B583B001900B46ADF80230019B0022EC
:102590001A60019B00225A60019B00229A60019BF5
:1025A0000022DA60019B00221A82019B00225A61FC
:1025B000019B00229A61019ABDF90230104619462A
:1025C00002F01EFF019B184603B05DF804FB00BF3C
:1025D00000B583B001900091019B18460099FFF768
:1025E000ABFF03B05DF804FB00B583B00190019B25
:1025F0001846FFF7B5FF0346184603B05DF804FB25
:1026000000B583B00190009101980099FFF7E0FFB9
:10261000019B184603B05DF804FB00BF00B583B012
:1026200001900198FFF7E0FF0346184603B05DF8FC
:1026300004FB00BF82B00190019B042283F80121BA
:10264000019B184602B0704700B585B00390029117
:10265000019200930398FFF7EDFF039B08221A7085
:10266000009BDBB203F00F03DBB263F07F03DBB24E
:10267000DAB2039B5A70029BDBB203F07F03DAB23B
:10268000039B9A70019BDBB203F07F03DAB2039BDA
:10269000DA7000BF039805B05DF804FB00B585B0A3
:1026A00003900291019200930398FFF7C3FF039BED
:1026B00009221A70009BDBB203F00F03DBB263F058
:1026C0006F03DBB2DAB2039B5A70029BDBB203F0FA
:1026D0007F03DAB2039B9A70019BDBB203F07F03A6
:1026E000DAB2039BDA7000BF039805B05DF804FB13
:1026F00000B583B00190019B5B781B09DBB2083BFE
:10270000072B3DD801A252F823F000BF2D27000867
:1027100031270008352700083927000871270008ED
:1027200075270008792700087D270008012328E085
:10273000022326E0032324E0019800F04FF803462B
:10274000772BD4BF01230023DBB2002B01D004235D
:1027500017E0019800F042F803467B2B0CBF0123E1
:102760000023DBB2002B01D008230AE0002308E09D
:10277000052306E0062304E0072302E0092300E026
:102780000023184603B05DF804FB00BF82B001903F
:10279000019B5B7803F00F03184602B0704700BF3F
:1027A00082B00190019B9B7803F07F03184602B032
:1027B000704700BF82B00190019BDB7803F07F037C
:1027C000184602B0704700BF82B00190019BDB78D1
:1027D00003F07F03184602B0704700BF82B001903B
:1027E000019B9B7803F07F03184602B0704700BF3F
:1027F00084B00190019BDB7803F07F03DA01019B39
:102800009B7803F07F0313430393039BA3F50053CB
:10281000184604B0704700BF84B038B504AC84E8F3
:102820000F0004A8FFF764FF0346013B062B51D8B5
:1028300001A252F823F000BF7928000855280008AB
:10284000D52800089D280008D5280008D5280008AC
:10285000B928000804A8FFF7A3FF054604A8FFF75E
:10286000A9FF044604A8FFF791FF03461D48294627
:10287000224603F0CFFC30E004A8FFF791FF0546A5
:1028800004A8FFF797FF044604A8FFF77FFF03465D
:1028900015482946224603F0BDFC1EE004A8FFF7B8
:1028A0009DFF044604A8FFF78FFF03460F4821460B
:1028B0001A4603F0AFFC10E004A8FFF767FF0446D8
:1028C00004A8FFF795FF0346094821461A4603F07E
:1028D000A1FC02E0074803F09DFCBDE8384004B0CD
:1028E000704700BFDCC4000808C5000834C50008F4
:1028F0005CC5000880C5000810B5ADF5427D2D48C7
:102900002D49FEF765FD3023C1934EE03FAB1846DD
:10291000C1997F220023FFF7C1FE3FAC694604F155
:102920000C03F6220846194603F028FB94E80E0033
:102930002048FEF7D7FC2148FFF770FE0346002B26
:102940000CBF01230023DBB21C481946FFF758FED9
:102950004FF07A5002F08AFE1848FFF75FFE0346F8
:10296000002B0CBF01230023DBB214481946FFF7EC
:1029700047FE80AB1846C1997F220023FFF764FE13
:1029800080AC694604F10C03F6220846194603F0B0
:10299000F5FA94E80E000748FEF7A4FC4FF07C50CF
:1029A00002F064FEC19B0133C193C19B522BADDD8C
:1029B000A9E700BF940B002019280008780B00201D
:1029C00000B583B00190019B054A1A60019B18462F
:1029D000FEF71EFC019B184603B05DF804FB00BF28
:1029E00058C3000800B583B001900091019B012BF2
:1029F00015D1009B4FF6FF72934210D10948052173
:102A0000FFF7BEFD08484FF4E06140F201120123D8
:102A1000FEF734FC04480549054A00F0E7FA03B024
:102A20005DF804FB780B0020940B0020C1290008FE
:102A30009801002008B501204FF6FF71FFF7D2FF83
:102A400008BD00BF7FB50023072855D8DFE800F098
:102A50000413202D3A54544700932A4B2A481A6BEA
:102A600042F001021A631B6B03F001030093009B09
:102A700007B05DF804FB0193224B24481A6B42F027
:102A800002021A631B6B03F002030193019BEFE741
:102A900002931C4B1E481A6B42F004021A631B6B14
:102AA00003F004030293029BE2E70393154B1948DA
:102AB0001A6B42F008021A631B6B03F008030393BE
:102AC000039BD5E704930F4B13481A6B42F0100297
:102AD0001A631B6B03F010030493049BC8E7059370
:102AE000084B0E481A6B42F080021A631B6B03F00E
:102AF00080030593059BBBE7094802F045FD0020D4
:102B0000B6E700BF00380240000002400004024067
:102B100000080240000C024000100240001C02406D
:102B20003CC60008431C10B5044604D17422064973
:102B3000064802F017FD2046002100F0F1FA04F0EB
:102B40000F040120A04010BD5DC60008B4C60008F7
:102B500070B504464B1C0E46218216D0C1F30310FB
:102B6000FFF770FF05463046FFF7DCFF238A074A70
:102B7000656103F00F03206052F82330A36105F173
:102B8000100318356360A560E56070BDA0C700083C
:102B9000B0F9100000F05CBB10B58369446971B9ED
:102BA000216893FAA3F2B2FA82F20320520000FAEB
:102BB00002F221EA020293FAA3F3226010BD226816
:102BC00093FAA3F1B1FA81F193FAA3F30320490038
:102BD00000FA01F1B3FA83F322EA01025B0001215A
:102BE00001FA03F31343236010BD000070B5134CCA
:102BF00023681A69950707D5DA68900704D56FF03E
:102C000002021A6102F04CFC23681A69510713D5BD
:102C1000DA68520710D56FF00402094E1A615D6A36
:102C20003368EB1AB3F57A7F06D300F0ADFC236866
:102C300005F57A729A63356070BD00BF04150020F7
:102C4000C810002030B589B001A903A801F032FCFA
:102C500001F000FC00230293254B01901A6C254CD7
:102C600042F008021A641A6C02F008020292029AF8
:102C70001A6A42F008021A621A6A22F008021A62FC
:102C8000069AA3F50B3323604FF0FF33E3601A4B32
:102C9000002A2AD1B0FBF3F0013800256060154806
:102CA0002561A560656101F071FC144B144A9B68B5
:102CB0001048C3F80821134B4FF480225A6029466C
:102CC00001F0A0FC04210B4801F09CFC23680E4A93
:102CD000596A1160126802F57A729A63DA682846B6
:102CE00042F00402DA6009B030BD4000D2E700BF14
:102CF000003802400415002040420F0000ED00E0C3
:102D0000ED2B000800E100E0C810002000B589B0FC
:102D100002F056FC052101A802F072FB039B019A08
:102D20001A60962002F0B0FC019B049A1B04136009
:102D3000962002F0A9FCF1E770B50D46A0B004465C
:102D400002F03EFC2B4622468021684605F0DAFF61
:102D5000051E03DC02F060FC20B070BD094B1B684F
:102D600023B903220221084800F008FB064E002484
:102D70001DF804103046013400F0C0FBA542F7D125
:102D8000E8E700BFD4110020B41400200FB407B549
:102D900004A951F8040B0191FFF7CEFF03B05DF8D1
:102DA00004EB04B0704708B502F07AFA00F0D4FBE7
:102DB00002F068FABDE8084002F072BA08B5084BA4
:102DC0001B685BB902210748032200F0D7FA4FF4D1
:102DD00016510448BDE8084000F07ABB08BD00BFAA
:102DE000D4110020B4140020022810B501DC00200A
:102DF00010BDC31E0B4A52F82300002142F82310D5
:102E000030B902F047FC092303604FF0FF3010BDDA
:102E100003685B699847041EE9DA02F03BFC6442F0
:102E20000460F2E7CC1000200228F8B50D461446E5
:102E30000EDC134B1B680BB9FFF7C0FF114E2F19A7
:102E4000BD4210D015F8011B304600F057FBF7E7E4
:102E500003380D4B53F8200038B902F01BFC09234E
:102E600003604FF0FF342046F8BD0368DB689847E5
:102E7000041EF8DA02F00EFC63420360F3E700BFC1
:102E8000D4110020B4140020CC100020022810B56A
:102E90000C460BDC104B1B680BB9FFF78FFF0F487C
:102EA00000F01AFB20700124204610BD03380C4BA3
:102EB00053F8200030B902F0EDFB092303604FF016
:102EC000FF34F1E703689B689847041EECDA02F0D0
:102ED000E1FB63420360E7E7D4110020B414002053
:102EE000CC100020022810B516DD03380B4B53F828
:102EF00020402CB902F0CEFB09230360204610BD10
:102F000023682046DB699847041EF7DA02F0C2FB0B
:102F1000644204600024F1E70124EFE7CC100020B4
:102F2000022810B506DC02F0B5FB1D2303604FF04C
:102F3000FF3010BD03380A4B53F8200018B902F0D7
:102F4000A9FB0923F2E703681B699847041E04DA0A
:102F500002F0A0FB64420460E9E7204610BD00BF18
:102F6000CC100020022808B504DC4FF400534B605D
:102F7000002008BD02F08EFB092303604FF0FF30F4
:102F800008BD00000C4A136810B51844EFF308811F
:102F9000884205D3094B0C221A604FF0FF3010BD58
:102FA00007490C6824B10749096821448842F1D2D5
:102FB0001060184610BD00BF94020020401500208C
:102FC000CC110020D0110020074C08B5236805461D
:102FD000986802F067FC2368D86802F063FC0DB1C2
:102FE000FFF794FEFEE700BFC806002001207047EF
:102FF00008B5FFF7E9FF012070477047704708B533
:10300000FFF7FBFF08BD08B5FFF7F8FF08BD00009C
:1030100010B5037803F00303012B04460CD02BB149
:103020004FF468720549064802F09CFA237843F091
:1030300002032370012010BD002010BDE4C600086B
:1030400038C7000810B5037803F00303022B0446C9
:1030500005D04FF46A720549054802F083FA2378D7
:1030600023F0030343F00103237010BDE4C60008FE
:103070005EC7000810B502F027FF044610B90248E9
:1030800002F082FA204610BDC7C6000808B102F05F
:1030900023BF7047FFF7FABF70477047074B0849D7
:1030A0009A68084810B5043A52F8044F41F8044FA2
:1030B0008142F9D14FF000529A6010BD00ED00E05E
:1030C000FCFFFF1F9401002008B5FFF7E7FFFFF7A3
:1030D0006AFEFFF7E2FF08BD08B5FFF7DDFFBDE8B8
:1030E0000840FFF709BC30B5C36891FAA1F4B4FAFF
:1030F00084F491FAA1F10325B1FA81F1640005FA93
:1031000004F4490023EA040302FA01F11943C160FF
:1031100030BD012A02D0022A18BF0022FFF7E3BF08
:103120002DE9F0410E46411C044604D13E2244499B
:10313000444802F017FA04F00F08434BC4F303109D
:1031400053F82850FFF77EFC06F007070446836813
:1031500095FAA5F1B1FA81F195FAA5F2032049009B
:1031600000FA01F1B2FA82F223EA010352000221CD
:1031700001FA02F21343A36087425AD8DFE807F04E
:103180005E1D021DB8F1070FC6F303203BD9626A2A
:103190002B0A93FAA3F1B1FA81F193FAA3F34FF05A
:1031A0000F0EB3FA83F389000EFA01F19B0022EAB5
:1031B000010200FA03F3134363623B46226895FA67
:1031C000A5F0B0FA80F095FAA5F14FF0030EB1FA30
:1031D00081F140000EFA00F0490022EA00028B4023
:1031E000013F1343012F236005D8636832074CBFAA
:1031F0002B43AB436360C6F3011229462046BDE86A
:10320000F041FFF786BF226A95FAA5F3B3FA83F37C
:1032100095FAA5F14FF00F0EB1FA81F19B000EFA6D
:1032200003F3890022EA030200FA01F31343236245
:10323000C3E767220249054802F094F90023BDE77D
:10324000E0C70008B4C60008A0C7000835C80008D9
:10325000431C70B506460D4604D188221B491C4804
:1032600002F080F906F00F021A4BC6F3031053F870
:103270002240FFF7E7FB04FB04F2016802EB420384
:103280000B40B3FBF2F3013B012B05D8EB1E022BE5
:10329000436809D823434360032D08D10122214606
:1032A000BDE87040FFF735BF23EA04034360012DFA
:1032B000F4D0052D01D0022D01D10222EFE72146E5
:1032C0000022BDE87040FFF70EBF00BFE0C7000856
:1032D000B4C60008A0C7000842681649920110B59C
:1032E00004685450531882685A60C2689A60026930
:1032F000DA6042691A61026A9A610022DA84DA614C
:103300009A84DA859A85B0F91A2001320AD1082206
:103310005A61184601F093FA58B10748BDE81040C9
:1033200002F032B9B0F9182001320CBF04220C228D
:10333000EEE710BD3412002037C800084368094A80
:103340009B0182B0D3581A68120706D50022019259
:103350001A6801925A680192019A1868C0F34010E5
:1033600002B07047341200204368034A9B01D358CF
:103370001868C0F3C010704734120020F0B50E4634
:1033800085B0044649493046154602F079F8484967
:103390000746284602F074F80146384602F052F813
:1033A0002060013004D13E224249434802F0DAF85D
:1033B0002368424A93421ED002F5806293425ED057
:1033C000A2F5504293422BD13D4B1A6A42F400328F
:1033D0001A621A6A22F400321A62002202921A6CED
:1033E00042F400321A641B6C03F400330293029B14
:1033F0000123636014E0324B5A6A42F010025A62B1
:103400005A6A002122F010025A6201915A6C42F06D
:1034100010025A645B6C616003F010030193019B1E
:103420002249304601F0F0FF2149284601F0ECFF27
:10343000721C03D001213046FFF70AFF6B1C03D03A
:1034400001212846FFF704FF4FF41653A360002321
:10345000E360236163612362268365832046FFF76F
:103460003BFF2268174B9A4207D1174B174801229E
:103470001A6021464C2202F081FD05B0F0BD104BD0
:103480005A6A42F020025A625A6A22F020025A62B4
:10349000002203925A6C42F020025A645B6C03F0E3
:1034A00020030393039B0523A3E700BFE8C500089F
:1034B00094C500084FC80008BAC8000800100140B1
:1034C0000038024000440040D4110020B414002011
:1034D0008160FFF701BF000038B544680546284603
:1034E000FFF72CFF0028FAD0A401034B1B595868A2
:1034F000C0F3080038BD00BF3412002070B5456825
:1035000006460C463046FFF72FFF0028FAD0AD01E3
:10351000024B5B59C4F308045C6070BD3412002098
:10352000DFF820D0002103E0074B5B584350043103
:103530000648074B42189A42F6D301F001FEFCF709
:103540007DFE70470000022034CC00089801002066
:103550004C0B0020FEE7000008B50A4B1A6842F445
:1035600000721A601A6842F480621A601A6842F4A3
:1035700080721A600F20FFF765FB00F023F800202F
:1035800008BD00BF003C0240024A136801331360CB
:10359000704700BF00150020014B1868704700BF3E
:1035A0000015002037B50190FFF7F6FF019C631C62
:1035B000054618BF0134FFF7EFFF401BA042FAD3C6
:1035C00003B030BD70477047F0B504468BB000289B
:1035D00077D090F8C83303F0FF0263B9436880F8EE
:1035E000B82303F2B93300F2B9310344994265D1EB
:1035F0002046FFF7E8FF2546032355F8100B84F813
:10360000C83301F08AF90FCD6E460FC60FCD0FC635
:1036100095E8030086E80300271D97E80E00206860
:1036200001F03BF90021206801F07DF900212346DB
:10363000224604F110050126084682F83810D18789
:1036400001310F2982F8396082F83B001064506420
:10365000D06402F11C02F0D10022D4F800E011463F
:1036600002F1400083F8F821DA870EEB8000013286
:103670000F2A83F8F91183F8FB11C3F80012C3F87D
:103680000412C3F80C12416003F11C03E8D10FCD02
:103690006E460FC60FCD0FC695E8030086E80300FF
:1036A000704697E80E0001F055F9012384F8C833FD
:1036B000206801F09BFC00200BB0F0BD01F8012B4D
:1036C00094E70120F8E7704710B50446006801F060
:1036D00081FC206801F01BF9002010BD10B50446E4
:1036E000006801F01AF9206801F043FC206801F03D
:1036F0007DFC002010BD10B5044658B1032380F8AE
:10370000C833FFF7EBFF2046FFF7DDFF002084F80A
:10371000C80310BD012010BD704770472DE9F04F60
:10372000D0F8009087B00446484601F099FC02901A
:10373000002840F02E81206801F064FC002800F091
:103740002881206801F05EFC850748BF2268206858
:1037500042BF536903F00203536101F053FC10F4BC
:1037600000250AD0206801F051FC09F530660746B3
:10377000A2460025002F40F00F81206801F042FC96
:1037800041030BD5206801F049FC2646039009F55A
:1037900010680025039B002B40F03F81206801F05A
:1037A00031FC00280DDAD9F8043823F00103C9F8F8
:1037B00004382046FEF7CAFA2268536903F0004332
:1037C0005361206801F01EFC06050BD5D9F80838B6
:1037D000D80702D52046FEF78DFA2268536903F414
:1037E00000635361206801F00DFCC10437D509F571
:1037F00000667368206823F001037360102101F0F4
:1038000045F9616809F51063FF220298884240F08B
:1038100099814FF0FF33B361F36943F00113F36112
:10382000236B002B00F09681D6F8843043F00B0315
:10383000C6F88430736C43F00B037364D9F8003816
:10384000217C206823F4FE63C9F8003804F5737204
:1038500001F025FC2268536903F48053536120680A
:1038600001F0D0FB82041DD5206801F0FDFB20682B
:10387000C36823F47053C36001F031F9002840F0AD
:1038800072812268E0604FF400736361D36843F48F
:103890001053D3602046FEF7DDFA2268536903F423
:1038A00000535361206801F0ADFBC3062BD522689D
:1038B000936923F010039361D9F82060C6F3434362
:1038C000022B06F00F0840F0AF8147F6F0731E425E
:1038D00014D01C2707FB0847C6F30A163246D7F850
:1038E0000412484601F0FFFAD7F804323344C7F80F
:1038F0000432D7F810321E44C7F810622268936968
:1039000043F010039361206801F07CFB070707D5A3
:103910002046FDF707FF2268536903F0080353614F
:10392000206801F06FFBC60208D5E9B22046FFF718
:10393000F4FE2268536903F480135361206801F098
:1039400061FB800208D5E9B22046FFF7E5FE226858
:10395000536903F400135361206801F053FB4100E5
:1039600007D52046FEF71EFA2268536903F080430C
:103970005361206801F046FB42070AD523685D6861
:103980006B0702D52046FEF739FA23685A681543BB
:103990005D6007B0BDE8F08FF80738D55FFA85FBAA
:1039A0005946206801F042FB10F0010F804621D0FB
:1039B000216901239942B3600CD13169DAF8000220
:1039C000C1F31201411ACAF81012DAF804120844BD
:1039D000CAF8040259462046FEF776F82169012903
:1039E00008D13DB9D4F80C2222B904F573722068CD
:1039F00001F055FB18F0080F04D02046FEF730F90F
:103A00000823B36018F0100F1CBF1023B3600135FA
:103A10007F0820360AF11C0AACE6039BDA0707D4BC
:103A2000039B5B08013503931C3608F12008B1E6BF
:103A30005FFA85FB5946206801F002FBC307074681
:103A400024D50123AB4009F63401DB4351E8002FB4
:103A50001A4041E800200028F8D10123C8F80830B6
:103A60002369012B01BF736C326C9B187364594638
:103A70002046FEF78DF82169012907D135B9E36C9D
:103A800023B904F57372206801F009FB380744BFBD
:103A90000823C8F80830F90644BF1023C8F80830D6
:103AA0007A0644BF4023C8F80830BB0744BF02234E
:103AB000C8F808303F06B3D523680493F76C336D1C
:103AC000FF1A336C9F4228BF1F46049B03F5106307
:103AD00007F1030A03EB45134FEA9A0A0593059B86
:103AE0009B699BB253450FD8002F99D10123049AAB
:103AF000AB4002F6340BDB435BE8002F1A404BE887
:103B000000210029F8D18BE7326DF36C9342EBD999
:103B1000002BE9D0376C04989B1A9F4228BF1F46A0
:103B2000237C00935A46BBB2716C01F0C8F9736CE8
:103B30003B447364336D07F1030A3B444FEA9A0A2E
:103B40003365CCE702989A600130C3F808220290EE
:103B500020335AE6736943F00B037361336943F012
:103B60000B0333616AE60323E3604023636100F0E3
:103B70006BFC354B354A03449342236804D8DA681A
:103B800042F47052DA6085E6314A324902448A4290
:103B900003D8DA6842F46052F4E7A0F574022E49C3
:103BA000A2F510528A4203D8DA6842F45052E9E78B
:103BB000A0F183722949A2F5E7428A4203D8DA6864
:103BC00042F44052DEE7264A264902448A4203D89C
:103BD000DA6842F43052D5E7234A244902448A4243
:103BE00003D8DA6842F42052CCE7214A2149024442
:103BF0008A4203D8DA6842F41052C3E7A0F1B772E0
:103C00001D49A2F558528A4203D8DA6842F400529C
:103C1000B8E71A4A1A4902448A42DA6894BF42F461
:103C2000E05242F4C052ADE7062B7FF467AE0822A3
:103C300004F5737148461C2701F055F907FB084746
:103C4000C6F30A1655E600BF405327FFFF340C00A9
:103C5000401E1BFF3F420F007F4F12001FD6130074
:103C600060B6E5FE5FE3160000D3CEFE3F771B0093
:103C7000C05BB3FEBF9121001F753800E05459FEB0
:103C8000DF9C410090F8B833012B10B5044609D0F1
:103C9000012380F8B833006801F08CF9002084F823
:103CA000B80310BD022010BD70B54EB2002E01F059
:103CB0007F044FF01C05B5BF05FB040105FB0101A6
:103CC000383101F5FC71E4B2002EB8BFCC80022B74
:103CD0000C70CB704FEAD67508BF0023044408BFB0
:103CE0000B714D7094F8B9338A60012B09D0012310
:103CF00084F8B933006800F00DFF002084F8B903A0
:103D000070BD022070BD4BB2002B10B54FF01C02ED
:103D100001F07F04B5BF02FB040102FB0101383151
:103D200001F5FC71E4B20C70DB0F04444B7094F8A5
:103D3000B933012B09D0012384F8B933006800F0AE
:103D400028FF002084F8B90310BD022010BD38B54B
:103D500001F07F051C2404FB0504C4F80C32002389
:103D6000C4F80422C4F8103284F8F93184F8F85108
:103D70000369012B08BFC4F80822441994F8B92339
:103D8000012A13D01C2101FB0501012284F8B9236B
:103D900001F5FC71DAB200682DB901F01FF80020BE
:103DA00084F8B90338BD00F04FFFF8E7022038BDB2
:103DB0001C2301F07F0103FB0101B1F810027047E1
:103DC00038B501F07F051C2404FB0504E3640023DF
:103DD00023650123626484F8393084F8385003691C
:103DE000012B08BFA264441994F8B923012A12D008
:103DF0001C2101FB0501012284F8B9233831DAB214
:103E000000682DB900F0EAFF002084F8B90338BD3E
:103E100000F01AFFF8E7022038BD4BB270B5002B56
:103E200001F07F054FF01C02B5BF02FB050102FB4C
:103E30000101383101F5FC71EDB20122DB0F4619A9
:103E40008A700D704B7096F8B933934204460FD0C8
:103E500086F8B923006801F054F82DB904F573729F
:103E6000217C206801F01BF9002086F8B90370BDA1
:103E7000022070BD38B54BB2002B01F07F044FF02B
:103E80001C02B5BF02FB040102FB0101383101F540
:103E9000FC71E4B20C70DB0F002504448D704B7094
:103EA00094F8B933012B09D0012384F8B9330068A1
:103EB00001F046F884F8B953284638BD022038BDD1
:103EC00001F07F0310B5C41894F8B923012A10D06B
:103ED000012284F8B9230A0607D51946006800F0C4
:103EE000D5FD002084F8B90310BD006800F0E0FDA6
:103EF000F7E7022010BD006870B5436A21B943EAB4
:103F000002438362002070BD846A002503EB1443E2
:103F10004E1EECB2B44205F1010506DB3F3100EB69
:103F2000810043EA02434360ECE7403400EB840441
:103F3000646803EB1443ECE70368002059627047A0
:103F40000368F7B50446D8073BD42368990700F106
:103F5000868023681E0700F1D18023685D072AD57B
:103F6000002301938E4B8F4D1A6C42F080521A64DD
:103F70001B6C03F080530193019B2B6843F4807307
:103F80002B60FFF709FB06462B68DA0540F1D88065
:103F9000A368834D012B40F0DA802B6F43F00103BF
:103FA0002B67FFF7F9FA7E4D064641F288372B6FF3
:103FB0009B0740F1ED80A269002A40F0F9800020C3
:103FC00015E0774B9A6802F00C02042A07D09A6831
:103FD00002F00C02082A0CD15B685A0209D5704B1A
:103FE0001B689B03B1D56368002BAED1012003B0E1
:103FF000F0BD63686A4DB3F5803F11D12B6843F47F
:1040000080332B60FFF7C8FA654D06462B689F0387
:104010009BD4FFF7C1FA801B6428F7D90320E6E799
:10402000B3F5A02F04D12B6843F480232B60E5E780
:104030002A6822F480322A602A6822F480222A60C8
:10404000002BDFD1FFF7A8FA06462B6898037FF50F
:104050007CAFFFF7A1FA801B6428F6D9DEE7504B4E
:104060009A6812F00C0F07D09A6802F00C02082A26
:1040700016D15B68590213D4494B1A68920702D5CE
:10408000E268012AB2D11868F82292FAA2F2B2FAD2
:1040900082F122698A4020F0F8010A431A6058E749
:1040A000E268414BDAB101221A60FFF775FA3C4D24
:1040B00006462B689B070CD52968F82393FAA3F3CF
:1040C000B3FA83F22369934021F0F80213432B6083
:1040D0003FE7FFF761FA801B0228EAD99EE71A60E2
:1040E000FFF75AFA2E4D06462B689F077FF531AF32
:1040F000FFF752FA801B0228F6D98FE762692B4B33
:104100007AB101221A60FFF747FA254D06466B6F18
:1041100098073FF522AFFFF73FFA801B0228F6D938
:104120007CE71A60FFF738FA1D4D06466B6F99075A
:104130007FF513AFFFF730FA801B0228F6D96DE741
:10414000FFF72AFA801B02287FF61EAF66E7052BD1
:1041500004D12B6F43F004032B671EE72A6F22F074
:1041600001022A672A6F22F004022A67002B7FF4DB
:1041700018AFFFF711FA41F2883706462B6F980700
:104180007FF519AFFFF708FA801BB842F6D945E76B
:10419000FFF702FA801BB8427FF609AF3EE700BF87
:1041A000003802400070004000004742800E474245
:1041B0002B4DAB6803F00C03082B3FF417AF294ECF
:1041C0000023022A33603ED1FFF7E6F907462B6849
:1041D000990132D447F6C07797FAA7F74FF44032E7
:1041E000B7FA87F792FAA2F24FF07061B2FA82F052
:1041F00091FAA1F1226AE3691343626A02FA07F7AE
:10420000A26A5208013A82403B431343E26A144CCB
:10421000B1FA81F102FA01F10B436B6001233360C3
:10422000FFF7BAF9054623689A013FF5C8AEFFF7D4
:10423000B3F9401B0228F6D9F0E6FFF7ADF9C01B31
:104240000228C4D9EAE6FFF7A7F904462B689B01C8
:104250007FF5B5AEFFF7A0F9001B0228F6D9DDE621
:104260000038024060004742194A936803F00C038B
:10427000042B10B503D0082B03D0164810BD1648E8
:1042800010BD5168536801F03F0113F4800F47F6E9
:10429000C074536894FAA4F0B0FA80F003EA0403FF
:1042A00023FA00F314BF0C480A48B0FBF1F058435E
:1042B000074B4FF440325B6892FAA2F2B2FA82F2F4
:1042C00003F44033D34001335B00B0FBF3F010BD87
:1042D000003802400024F40000127A00564B1A689D
:1042E00002F00F028A422DE9F04105460E4630D316
:1042F0002A68940737D4D0073DD44F4B1A6802F090
:104300000F029642C0F088802A68510700F18C8025
:10431000130707D5494A2969936823F4604343EAA0
:10432000C1039360FFF7A0FF444BF0229B6892FA11
:10433000A2F2B2FA82F203F0F003D340404AD35C17
:10434000D840404B18600F20FEF77CFC0020BDE8F1
:10435000F081CAB21A701B6803F00F039942C7D0EC
:104360000120BDE8F0813549A8688B6823F0F0038F
:1043700003438B60BFE76A68304B012A1ED11B687C
:1043800013F4003FECD02D4CA36823F00303134338
:10439000A360FFF701F96B68012B074641F28838EB
:1043A00016D1A36803F00C03042BA6D0FFF7F4F892
:1043B000C01B4045F5D90320BDE8F081911E0129BD
:1043C0001B6802D813F0007FDCE713F0020FD9E777
:1043D000022B0AD1A36803F00C03082B8DD0FFF742
:1043E000DBF8C01B4045F5D9E5E7032B0FD1A368E7
:1043F00003F00C030C2B80D0FFF7CEF8C01B404518
:10440000F5D9D8E7FFF7C8F8C01B4045D3D8A36853
:1044100013F00C0FF6D170E7F2B21A701B6803F0BC
:104420000F039E429CD16FE70449E8688B6823F430
:10443000E05303438B606BE7003C024000380240CE
:10444000D6C8000898020020014B1868704700BFCA
:1044500098020020084B4FF4E0529B6892FAA2F2B7
:10446000B2FA82F203F4E053D340044AD35C044A24
:104470001068D840704700BF00380240E6C8000806
:1044800098020020084B4FF460429B6892FAA2F217
:10449000B2FA82F203F46043D340044AD35C044A84
:1044A0001068D840704700BF00380240E6C80008D6
:1044B000980200200F2303600B4B9A6802F003025E
:1044C00042609A6802F0F00282609A6802F4E05258
:1044D000C2609B68DB0803F4E0530361034B1B6875
:1044E00003F00F030B60704700380240003C0240AD
:1044F00070470000224A036890420ED0B0F1804F0E
:104500000BD0A2F57C42904207D002F58062904227
:1045100003D002F58062904219D14A6823F07003FB
:104520001343174A904204D1CA6823F440731343DB
:1045300018E0B0F1804FF7D0124A9042F4D002F563
:1045400080629042F0D002F580629042ECD00E4A38
:104550009042E9D002F580629042E5D002F5806297
:104560009042E1D003608B68C3620B688362044BA6
:10457000984204BF0B69036301234361704700BF86
:1045800000000140000400400040014010B5044616
:10459000A0B190F8393003F0FF021BB980F8382041
:1045A000FFF7A6FF022384F839302068211DFFF7AA
:1045B000A1FF012384F83930002010BD012010BD77
:1045C000036A10B501248C4023EA04030362036AE2
:1045D0008A401A43026210BD10B5044601220068E9
:1045E000FFF7EEFF2368064A934202BF5A6C42F47B
:1045F00000425A641A6842F001021A60002010BD9D
:1046000000000140FFF7E8BF2DE9F0470668C268E7
:104610003369C16923F4405313433361044683680B
:104620000069F2680343606922F41642034322F0F2
:104630000C020B431343F3607369A26923F44073C4
:104640001343B1F5004F73617A4B7CD19E4203D086
:1046500003F580639E4244D1FFF714FF192505FB43
:1046600000F360684FF064094000B3FBF0F3B3FB64
:10467000F9F34FEA0318FFF705FF636868435B002F
:10468000B0FBF3F7FFF7FEFE636868435B00B0FB27
:10469000F3F3B3FBF9F309FB1373DB003233B3FB22
:1046A000F9F35B0003F4F877FFF7ECFE6268684308
:1046B0005200B0FBF2FAFFF7E5FE636868435B0067
:1046C000B0FBF3F3B3FBF9F309FB13A3DB003233C5
:1046D000B3FBF9F303F0070343443B44B360BDE885
:1046E000F087FFF7B7FE192505FB00F360684FF070
:1046F00064094000B3FBF0F3B3FBF9F34FEA03188E
:10470000FFF7A8FE636868435B00B0FBF3F7FFF7B1
:10471000A1FE636868435B00B0FBF3F3B3FBF9F3FE
:1047200009FB1373DB003233B3FBF9F35B0003F4D3
:10473000F877FFF78FFE626868435200B0FBF2FA29
:10474000FFF788FEB9E79E4202D03B4B9E4240D124
:10475000FFF798FE676819254FF0640905FB00F321
:10476000BF00B3FBF7F3B3FBF9F31F01FFF78AFEBA
:10477000636868439B00B0FBF3F8FFF783FE636850
:1047800068439B00B0FBF3F3B3FBF9F309FB13831E
:104790001B013233B3FBF9F303F0F008FFF772FEAD
:1047A000626868439200B0FBF2FAFFF76BFE636841
:1047B00068439B00B0FBF3F3B3FBF9F309FB13A3CE
:1047C0001B013233B3FBF9F303F00F0343EA080391
:1047D00083E7FFF73FFE676819254FF0640905FB83
:1047E00000F3BF00B3FBF7F3B3FBF9F31F01FFF7CF
:1047F00031FE636868439B00B0FBF3F8FFF72AFEC5
:10480000636868439B00B0FBF3F3B3FBF9F309FB68
:1048100013831B013233B3FBF9F303F0F008FFF706
:1048200019FE626868439200B0FBF2FAFFF712FECD
:10483000BDE700BF0010014000140140704710B5F3
:10484000044640B390F8393003F0FF021BB980F8FA
:104850003820FFF7F3FF2268242384F83930D36827
:1048600023F40053D3602046FFF7CEFE23681A6975
:1048700022F490421A615A6922F02A025A61DA68D7
:1048800042F40052DA6000202023E06384F83930DB
:1048900084F83A3010BD012010BD84B038B505ADA4
:1048A00085E80E000A9B012B044626D1836B23F476
:1048B00080338363C36823F4840323F04003C3601D
:1048C000C36823F44013C360119B012B02BFC3686C
:1048D00043F48013C36000F005FC089B012B07D153
:1048E000A36843F00603A360A36843F02003A3601A
:1048F000BDE83840002004B07047C36843F040036F
:10490000C36000F0EFFB4FF48033A363E5E78368F7
:1049100043F00103836000207047836823F00103A4
:1049200083600020704708B5C368012923F0C043A5
:10493000C36008D1C36843F00053C3603220FEF760
:1049400031FE002008BD0029F8D1C36843F0804340
:10495000C360F3E784B02DE9F041044607A880E87E
:104960000E00119E0A9FA36B8846A6B943F400135C
:10497000A3630023C4F8003ED4F80038C4F800381C
:104980000C9B012B04F500655ED1099939B92046CD
:1049900000F09EF807E043F40023A363E9E719461B
:1049A000204600F095F81021204600F06FF82046D0
:1049B00000F07EF800234FF0FF322B6119466B6147
:1049C0004FF09040AA614FF0FF0EEB6104F51062CA
:1049D00043453BD1002104F5306208464FF0904E2C
:1049E0004FF0FF0C8B423ED12B69012F23F48073D3
:1049F0002B6108D1234B2B632B6B43F4803343F0A3
:104A000003032B632B6B0023A3616FF0804363616F
:104A10001FB9A36943F01003A361A2691A4B1343A2
:104A2000A3610D9B1BB1A36943F00803A361012E91
:104A300001BFA36943F0804343F00403A361BDE8D1
:104A4000F041002004B070470321A0E7D2F800C075
:104A5000BCF1000FB4BF1060116001331161C2F8E6
:104A600008E02032B4E7D2F80080B8F1000FB4BFFC
:104A7000C2F800E0106001311061C2F808C02032B5
:104A8000B0E700BF0001800000383C80890141F0A0
:104A90002001064A0161013A05D0036913F02003A1
:104AA000F9D1184670470320704700BF410D03003D
:104AB0001023064A0361013A05D0036913F010037D
:104AC000F9D1184670470320704700BF410D03001D
:104AD000D0F800381943C0F800180020704700F5DE
:104AE0000062D0F8080810F0060012D0936803F0B6
:104AF0000603022B0CD0936803F00603062B07D0A5
:104B0000936803F00603042B14BF002002207047B3
:104B10000320704730B54B780C78D0F81C5800F55E
:104B20000062012B1BD1A3409BB22B4300F5106008
:104B3000D36100EB44131A6812040ED48A68C87853
:104B40001D68C2F30A0242F0805242F4004242EA77
:104B5000804040EA845028431860002030BD4FF464
:104B60008033A34000F530602B4300EB4410D36149
:104B700003681B04F1D48B68C9780268C3F30A0385
:104B800043F0805343F4004343EA814313430360FB
:104B9000E3E700F001B8000070B54B78012B0E463A
:104BA000054609784FF0200326D100F5106213FB6B
:104BB00001231A6822F400421A604FF000621A6062
:104BC0004FF080421A601F4A013A01D1032070BDA4
:104BD0009C6814F08044F7D110212846FFF756FF57
:104BE0003178D5F81C2801238B409BB222EA0303BD
:104BF000C5F81C38204670BD00F5306213FB012358
:104C00001A6822F400421A604FF000621A604FF0F6
:104C100080421A600B4A013AD8D0986810F0100010
:104C2000F9D1D5F8043843F48063C5F80438D5F8D1
:104C30001C384FF480328A4023EA0203C5F81C383E
:104C400070BD00BF410D0300F7B54B784C69012BD7
:104C50000B7879D1202600F5106516FB03531E69E9
:104C6000002C38D126F0FF5626F4C0161E611E69AE
:104C700046F400261E611E69F60CF6041E61012A28
:104C800050D10B780C6905EB43135C61CC78012C97
:104C90000FD1D0F808380E7813F4807F4FF020033E
:104CA00013FB06531E680CBF46F0005646F08056B4
:104CB0001E600E7805EB4615012C2B6843F004436B
:104CC0002B6005D18B8A0092C968324600F0F7F854
:104CD000002003B0F0BDF60CF6041E611E698F685B
:104CE00026F0FF5626F4C0161E61E619013EB6FBFB
:104CF000F7F7394ED3F810E006EAC74646EA0E0643
:104D00001E611F69C4F312063E431E61CE78012E58
:104D10005CD11E6926F0C0461E611E6946F0005631
:104D20001E61ACE7CB78012B53D0002CAED00B78B2
:104D3000012400F634069C4056E8003F234346E831
:104D40000037002FF8D1A1E700F5306505EB4313DC
:104D50001D69ED0CED041D611D6925F0FF5525F45D
:104D6000C0151D618D68FCB91C69C5F3120525438A
:104D70001D611C6944F400241C61012A04BFCA6837
:104D80005A61CA78012A0AD1D0F8082812F4807F23
:104D90001A680CBF42F0005242F080521A601A6842
:104DA00042F004421A6093E70B4E1F692C44013C09
:104DB000B4FBF5F406EAC4463E431E61A4B21E6984
:104DC0006543C5F3120535431D61D6E7012AACD111
:104DD00057E71C465DE700BF0000F81F70B54B7831
:104DE0004D69012B0B7847D1202400F5106614FB88
:104DF00003631C69CDB924F0FF5424F4C0141C6172
:104E00001C6944F400241C611C69E40CE4041C616A
:104E10000D7806EB4513012A1C6844F004441C601D
:104E20001BD10A695A61002070BDE40CE4041C61C6
:104E30001C6924F0FF5424F4C0141C618C68A54242
:104E400088BF4C611C6944F400241C614C691D69D5
:104E5000C4F312042C431C61DAE74B69002BE2D047
:104E6000012200F63400AA4050E8003F134340E816
:104E700000310029F8D1D6E700F5306000EB43108F
:104E80000369DB0CDB040361036923F0FF5323F4A4
:104E9000C01303618B6805B14B61046944F40024BD
:104EA00004610469C3F312032343012A036104BFAD
:104EB000CB684361036843F004430360B3E710B574
:104EC0009DF808404CB9033300F5805023F00303EC
:104ED00000EB02320B44994201D1002010BD51F881
:104EE000040B1060F7E7033222F003020A4400F5D6
:104EF0008050914201D108467047036841F8043B55
:104F0000F7E74B780A78012B4FF020030BD100F51F
:104F1000106013FB02000368002B0BDB036823F017
:104F20008043036006E000F5306013FB0200036875
:104F3000002BF3DA036843F400130360002070478A
:104F40004B780A78012B0CBF00F5106000F530603B
:104F5000202313FB0200036823F400130360CB78C3
:104F6000023B012B9EBF036843F080530360002087
:104F7000704738B500F52E61044600F51063FF2236
:104F80009A60C3F8082220338B42F9D100254FF0F4
:104F9000FF32C4F818282046C4F81058C4F8145832
:104FA000C4F81C58FFF784FD10212046FFF76EFD62
:104FB000284638BDD0F8003823F4FE63C0F8003826
:104FC000D0F80038090101F4FE611943C0F8001857
:104FD0000020704708B5D0F8043823F00203C0F869
:104FE00004380320FEF7DEFA002008BD08B5D0F82B
:104FF000043843F00203C0F804380320FEF7D2FA65
:10500000002008BD4269806910407047D0F8183808
:1050100000F50060C0691840000C7047D0F81838DF
:1050200000F50060C069184080B2704700F5306339
:1050300003EB411100F500608A6840691040704739
:1050400010B5D0F81048D0F8343800EB4110CB4000
:1050500000F51060DB018068DBB22343184010BD0F
:10506000406900F001007047D0F8003923F4FF6375
:1050700023F00703C0F8003900F500639A6802F0D6
:105080000602042A02BFD0F8002942F00302C0F849
:1050900000295A6842F480725A600020704710B5A7
:1050A0000024C0F8104BD0F8104B44F40024C0F892
:1050B000104BD0F8104B44F01804C0F8104BD0F847
:1050C000104B012900F5306344F0C04408BF4FF095
:1050D0008023C0F8104B04BFC0F8142BC0F8003B6D
:1050E000002010BD0A4B013B01D10320704702692B
:1050F000002AF8DA0369064A43F001030361013A22
:10510000F3D0036913F00103F9D11846704700BFCB
:10511000410D03007FB50F230193022302934FF447
:1051200080520023032101A8039304920593FFF703
:10513000D5F8B0FA80F0400907B05DF804FB000034
:105140000F49D1F8883043F47003C1F888300D4B13
:105150001A68002042F001021A6098601A6822F072
:10516000847222F480321A60074A5A601A6822F464
:1051700080221A60D8604FF000638B60704700BFD8
:1051800000ED00E0003802401030002400B58FB080
:105190001C4B002100911A6C42F080521A641B6C67
:1051A000194A03F080530093009B0191136823F484
:1051B000404343F400431360136803F440430193F6
:1051C000019B01230293C0B94FF480330393022360
:1051D00008934FF48003099304230A930C93082344
:1051E000C8220DEB03000B920D93FEF7A9FE38B910
:1051F000FFF790FF0FB05DF804FB4FF4A023E5E745
:105200000020F7E7003802400070004010B58EB073
:1052100000241A4B00941A6C42F080521A641B6CE2
:10522000174A03F080530093009B0194136823F402
:10523000404343F4004313601368039403F4404372
:105240000193019B099403230293012305931023E7
:1052500006930223C822089308230B920DEB030048
:1052600004220A930C920D93FEF76AFE18B9FFF719
:1052700051FF0EB010BD2046FBE700BF00380240D2
:105280000070004008B50120FFF780FF30B9FFF73C
:105290007DFF18B9FFF7BAFF00B9FEE708BD0000AF
:1052A000174A1849936803F00C03042B10B50DD06E
:1052B000082B0DD0144B0B60114B144A9B68C3F3A1
:1052C0000313D25C0B68D3400B6010BD104BF2E7A8
:1052D0005468506852686302C2F3881200F03F00BD
:1052E0004CBF0B4B084BB3FBF0F35343044A5268DB
:1052F000C2F3014201325200B3FBF2F3DBE700BF1D
:1053000000380240980200200024F400D6C80008AB
:1053100000127A00054B186830B901221A60044B5C
:10532000044A1A60FDF78EBC704700BFD8110020F8
:1053300004150020000C004008B5044B1B680BB995
:10534000FFF7E8FF024B586A08BD00BFD8110020E4
:10535000000C00400A4B0B4A1360DA6822F002028C
:10536000DA6058635A6A801A0028DEBF5A6942F030
:1053700002025A61DA6842F00202DA60704700BF46
:10538000000C004004150020034B044A1360DA6847
:1053900022F00202DA607047000C00400415002081
:1053A000034A044B13606FF002021A61704700BF9A
:1053B00004150020000C004038B504460D46036873
:1053C0005AB18268136020460121FDF7E5FB2946AA
:1053D0002046BDE83840FDF7DBBBC2681B04F1E79F
:1053E00070B50E4604461546FDF7B2FB013606D0F1
:1053F0002A4620460021BDE87040FFF7DDBF70BDA2
:105400000022FFF7EDBF000010B5044601300DD1BA
:1054100010BD9C4209D120468968FDF781FE2046D7
:105420000021BDE81040FDF713BF0C31B1F9003089
:105430005A1CEED10248BDE8104000F0A5B800BFEC
:105440001FC90008884208B508D0431C06D00131A6
:1054500006D0044800F098F84FF0FF31084608BD28
:105460000146FBE7EEC80008B1F900305A1C01D133
:1054700018467047834201D1486870470C31F3E702
:10548000421C10B5044607D0FFF7EEFF431C04464C
:1054900002D1024800F078F8204610BDFFC800088D
:1054A000014800F03DB800BF30C900080368D0B51E
:1054B00044685B68D4E9026798470022B04242EA38
:1054C00000023B4602D2003247F10103C4E9022345
:1054D000D0BD2DE970430646FFF7E8FF73685A68B0
:1054E000DAB1D3E90245D2E90001A94208BFA042DE
:1054F00011D3B0EB040861EB0509B9F1000F08BF47
:10550000B8F1E04F09D2001B9A68336810441B6958
:10551000BDE8704318470020F6E74FF0E040F3E79E
:10552000036870B5DB680446984763685B68A3B19D
:105530002046FFF7BBFF65686E68D5E90201D6E932
:105540000023994208BF904207D3F3686B602B6831
:10555000002BEAD0B0689847E7E72046BDE87040E6
:10556000FFF7B7BF70B504460D46164600F028F8A1
:1055700033462A4621460348FDF708FCBDE8704043
:10558000FDF7C4BB4CC900080FB413B5084B1A781B
:105590004AB9012405A904981C700191FDF7CCFBC0
:1055A0002046FDF725FD02B0BDE8104004B070476D
:1055B000F8110020EFF31080C04300F001007047A5
:1055C00038B5FFF7F7FF054672B60E4C236823B9CE
:1055D00080F001030C4ADBB213702368013304D15D
:1055E00045220A490A48FFF7BDFF23682BB125B1C0
:1055F000492206490748FFF7B5FF236801332360B6
:1056000038BD00BFFC110020F91100207DC9000841
:10561000CFC90008F5C9000810B50A4C236883B14A
:10562000FFF7C8FF20B15A2207490848FFF79AFF41
:105630002368013B236023681BB9054B1B7803B922
:1056400062B610BDFC1100207DC90008F5C9000834
:10565000F911002038B50446FFF76EFE0546FFF746
:105660006BFE401BA042FAD338BD000007EE100AC3
:10567000DFED047A67EE277AFDEEE77A17EE900AFF
:10568000FFF7E8BF002474494FF47A735843FFF7DB
:10569000E1BF0000014B1868704700BFC80600203A
:1056A00000293DD070B505460C4608B1836B7BB32D
:1056B000B4F90C300BB9002070BD2846214600F02B
:1056C00031F8E36A064633B12846E1699847002875
:1056D000B8BF4FF0FF36A3891B061CD4216B41B124
:1056E00004F14003994202D0284605F0F5FF00235B
:1056F0002363616C21B1284605F0EEFF002363644B
:1057000000F066F90023A38100F064F9304670BD13
:1057100000F058F9CCE72846216905F0DDFFDDE708
:10572000002070478B899AB22DE9F0410D46110790
:1057300080463CD46A6843F40063002AAB8165DD8F
:10574000AE6A002E4BD09BB203F48052002192B27D
:10575000D8F80040C8F80010002A5BD02A6D5F0717
:1057600005D569682B6B521A0BB1EB6BD21A404608
:10577000E9690023B047461C56D0AB892A692A60E4
:1057800023F400639BB200226A60DA04AB813BD44D
:10579000296BC8F8004011B305F14003994202D0CB
:1057A000404605F099FF00202863BDE8F0812E698E
:1057B000AEB12C682E6091070CBF6B690023A41B4F
:1057C000AB600AE0324623466F6AE9694046B84753
:1057D0000028A4EB0004064404DD002CF2DC0020C9
:1057E000BDE8F081AB8943F04003AB814FF0FF305F
:1057F000BDE8F081AB892A69696023F400639BB23C
:10580000AB81DB042A60C3D52865C1E7EA6B002AB7
:1058100096DCE4E701234046E969B047431C0246B1
:1058200019D0AB89AE6A9AE7D8F800100029E1D008
:105830001D2907D0162905D0AB8943F04003AB8161
:10584000BDE8F081AB892A692A6023F40063002255
:10585000AB816A609CE7D8F80030002BE1D01D2BAB
:1058600007D0162B05D0AB8943F04003AB81BDE8D0
:10587000F081C8F80040B2E710B5044682B008B124
:10588000836B53B1B1F90C0008B902B010BD2046CA
:1058900002B0BDE81040FFF745BF019100F092F85B
:1058A0000199EFE720B1054B01461868FFF7E4BF07
:1058B000034B0449186800F045BA00BFC806002031
:1058C00010CA000879580008014900F03BBA00BF2F
:1058D000A15600082DE9F04F354B4568C3630024FD
:1058E000074600F53B7204230321C0F8E412C0F818
:1058F000E822C0F8E04283B02C606C60AC606C665B
:10590000EC812C616C61AC61AB81214605F15C00DE
:10591000082200F031FCBE68DFF898B0DFF898A0EC
:10592000DFF89890DFF89880C5F820B001230922AD
:10593000C5F824A0C5F82890C5F82C80ED61214653
:10594000F381B28106F15C0034607460B460746607
:1059500034617461B4610822019300F00DFCFD68AC
:10596000F66112200222C6F820B0C6F824A0C6F8BC
:105970002890C6F82C802146A881EA812C606C60B2
:10598000AC606C662C616C61AC6105F15C00082256
:1059900000F0F2FB019BED61C5F820B0C5F824A032
:1059A000C5F82890C5F82C80BB6303B0BDE8F08F24
:1059B000C95800083D620008616200089962000849
:1059C000B9620008836B03B17047FFF783BF00BF64
:1059D000704700BF704700BF38B5084B084DED1A3F
:1059E000AC1018BFED1805D0013C55F8043D9847A0
:1059F000002CF9D1BDE8384006F068BC440B00200B
:105A0000480B002038B5084C0023054608461146CF
:105A10002360FDF7A7FA431C00D038BD2368002B94
:105A2000FBD02B6038BD00BF401500209368002BD1
:105A30007AD02DE9F04FB1F80CE01EF0080F83B0DA
:105A40000C468146164626D00B6923B30EF0020899
:105A50001FFA88F0356870B34FF0000ADFF8E0B243
:105A6000D046D8454346524628BF5B464846B8F123
:105A7000000F53D0E169676AB847002873DDB36847
:105A80001B1A8244C0EB0808B360002BE9D1002048
:105A900003B0BDE8F08F4846214603F0ABF900287B
:105AA00040F04581B4F80CE035680EF002081FFAAA
:105AB00088F00028D0D11EF0010B5DD1D846B8F196
:105AC000000F25D01EF4007FA7682FD0B845BA4636
:105AD000C0F0A9801EF4906F40F0B6802068524656
